:020000040800F2
:10000000900700209D010008272100089D1C000882
:1000100025210008D10300087D2D00080000000004
:10002000000000000000000000000000FD280008A3
:10003000D30300080000000029210008FF28000861
:10004000B7010008B7010008B7010008B7010008B0
:10005000B7010008B7010008B7010008B7010008A0
:10006000B7010008B7010008B7010008B701000890
:10007000B7010008B7010008B7010008B701000880
:10008000B7010008B7010008B7010008B701000870
:10009000B7010008B7010008B7010008B701000860
:1000A000B7010008B7010008B7010008B701000850
:1000B000B7010008B7010008B7010008B701000840
:1000C000B7010008B7010008B7010008B701000830
:1000D000B7010008B7010008B7010008B701000820
:1000E000B7010008B7010008B7010008B701000810
:1000F000B7010008B7010008B7010008B701000800
:10010000B7010008B7010008B7010008B7010008EF
:10011000B7010008B7010008B7010008B7010008DF
:10012000B7010008B7010008B7010008B7010008CF
:10013000B7010008B7010008B7010008B7010008BF
:10014000B7010008B7010008B7010008B7010008AF
:10015000B7010008B7010008B7010008B70100089F
:10016000B7010008B7010008B7010008B70100088F
:10017000B7010008B7010008B7010008000000003F
:10018000B7010008B7010008DFF80CD000F07AF8DA
:1001900000480047BD2D0008900700200648804712
:1001A00006480047FEE7FEE7FEE7FEE7FEE7FEE75C
:1001B000FEE7FEE7FEE7FEE799290008890100084F
:1001C0002DE9F05F0546002092469B46884606468C
:1001D000814640241BE0284641464746224600F01F
:1001E00041F853465A46C01A914110D31146184659
:1001F000224600F028F82D1A67EB01084F462246E8
:100200000120002100F01FF817EB00094E41201ECD
:10021000A4F10104DFDC484631462A464346BDE8E6
:10022000F09FD2B201E000F8012B491EFBD27047CB
:100230000022F6E710B513460A4604461946FFF7B2
:10024000F0FF204610BD202A04DB203A00FA02F11C
:10025000002070479140C2F1200320FA03F31943B4
:1002600090407047202A04DB203A21FA02F0002156
:10027000704721FA02F3D040C2F1200291400843B6
:1002800019467047064C074D06E0E06840F0010350
:1002900094E8070098471034AC42F6D3FFF778FF94
:1002A000102E0008302E0008464910B54A6822F486
:1002B00040324A604A6843681A434A6001684A68A3
:1002C00022F480724A6001684A68036942EA0322A4
:1002D0004A6001684A6822F040724A6001684A68D0
:1002E00083681A434A6001688A6822F400628A605F
:1002F00001688A68C3681A438A60816A6FF0706215
:10030000D14201688A6822F070628A6001688A6856
:100310000CD0836A1A438A6001688A6822F04052CE
:100320008A6001688A68C36A1A4301E022F0405279
:100330008A6001688A6822F002028A6001688A681D
:10034000037E42EA43028A6090F820100029016887
:100350004A680FD042F400624A6001684A6822F499
:1003600060424A6001684A68174C436A04EB4333B1
:100370001A4301E022F400624A600168CA6A22F46A
:100380007002CA620168CA6A838B104C04EB035383
:100390001A43CA6201688A6822F400728A6001689E
:1003A0008A6890F8303042EA43228A6001688A689D
:1003B00022F480628A6001688A68406942EA80208B
:1003C000886010BD0023014000E0FFFF0000F0FF47
:1003D000FEE7704772B6FEE730B5B3F5804F05D043
:1003E0006FF0704140F82210002030BD8C690B681E
:1003F0008D6823434C688989240144EA05242343FA
:1004000043EA014150F82230014C23401943E9E707
:100410000000F0CF10B50A6850F8223023F0010335
:1004200040F822308C68082C23D000234A682243ED
:10043000CC681C430B6922431A434B690E4C1A4388
:10044000CB691A430B6A1A434B6A1A438B6A1A43E5
:10045000CB6A1A430B6B1A438B691343CA6B096847
:100460001A4350F82130A343134340F821300020B1
:1004700010BD4023DAE700007FFF0F0030B5D1E95F
:10048000003443EA04138C688D89240244EA05444D
:1004900023430C8A094D00EB820005EB04542343EF
:1004A0000C7D6D0105EB0464896923430B434168AE
:1004B00001F040410B434360002030BD0000F0FFDD
:1004C00078B50024009490F83C20012A19D001222C
:1004D00080F83C200A6807230568092A13D9EE68CA
:1004E0000A3A02EB420293409E43EE600B788A6820
:1004F0000A3B03EB43039A400368DD682A43DA6052
:1005000010E0022078BD2E6902EB420293409E4328
:100510002E610B788A6803EB43039A4003681D69D8
:100520002A431A614A681F23072A13D205686E6B93
:10053000521E02EB820293409E436E630B790A883F
:100540005B1E92B203EB83039A4003685D6B2A4300
:100550005A6327E005680D2A12D22E6BD21F02EBD8
:10056000820293409E432E630B790A88DB1F92B26E
:1005700003EB83039A4003681D6B2A431A6311E05F
:10058000EE6A0D3A02EB820293409E43EE620B79D3
:100590000A880D3B92B203EB83039A400368DD6A3D
:1005A0002A43DA62164B0568144A9D4206D10D684B
:1005B000122D03D1556845F48005556005689D42AC
:1005C00018D10B68102B01D0112B13D1536843F4B1
:1005D00000035360096810290CD10A490A4A0968C6
:1005E000B1FBF2F101EB8101490000E0491E0091ED
:1005F0000029FBD180F83C40002078BD0023014059
:10060000002001401400002040420F0070B504009B
:100610004FF0000503D0206C002610B107E0012048
:1006200070BD204600F01CF8666484F83C60206CC5
:10063000C00610D4206C20F4885040F002002064E2
:100640002046FFF731FE6664206C20F0020040F087
:100650000100206400E0012584F83C60284670BD5C
:1006600010B586B0044614216846FFF7E1FD114934
:10067000206888421CD110480021026842F4807230
:100680000260006800F4807005900B48143802681E
:1006900042F004020260006800F0040005900120AE
:1006A00000900320CDE901016946044800F06EF88E
:1006B00006B010BD0020014044380240000802404E
:1006C00070B5044600F060F90546601C02D004488D
:1006D0000078044400F058F9401BA042FAD370BDE2
:1006E00008000020F0B587B014216846FFF7A0FD90
:1006F0002048016800293AD1012101601E480024E8
:10070000016841F0010101600068022500F001006C
:1007100005904FF23F00CDE9000502AA03260C2701
:1007200082E8D0006946154800F030F841F23F00F9
:10073000CDE9000502AA694682E8D000104800F021
:1007400025F84FF68370CDE9000502AA694682E8D4
:10075000D0000C4800F01AF84FF63370CDE90005D0
:1007600002AA694682E8D000074800F00FF807B0F7
:10077000F0BD0000000000203838024000140240A4
:100780000018024000100240000C02402DE9F84F12
:10079000DFF8BCA10022012503264FF00F090AF162
:1007A000040BAAF1040E00BF0B6805FA02F4234003
:1007B000A34270D10F7907F00307012F01D0022F58
:1007C00016D187684FEA420806FA08FC27EA0C07A8
:1007D000D1F80CC00CFA08FC4CEA070CC0F808C0B1
:1007E0004768A7430C79C4F3001494403C43446029
:1007F0000C79E443A4070AD0C4684FEA420C06FA15
:100800000CF7BC438F6807FA0CF72743C7600C79D5
:1008100004F00304022C12D1D40800EB840CDCF8A1
:1008200020405707FF0E09FA07F824EA0804D1F818
:10083000108008FA07F848EA0408CCF82080046819
:100840004FEA420C06FA0CF7BC430F7907F0030796
:1008500007FA0CF7274307604C6814F4403F70D048
:100860003C4C276847F480472760246822F0030740
:1008700004F480440094384C07EB040CDCF808487E
:1008800097074FEA177809FA08F7BC43334FB84285
:1008900002D1002724E054E0314FB84201D10127B2
:1008A0001EE0304FB84201D1022719E02E4FB84266
:1008B00001D1032714E02D4FB84201D104270FE0E6
:1008C0002B4FB84201D105270AE02A4FB84201D187
:1008D000062705E0284FB84201D1072700E0082786
:1008E00007FA08F72743CCF80878DAF800405746AB
:1008F000D1F804C09C435FEACC2C00D51C433C607B
:10090000DBF800405F46D1F804C09C435FEA8C2CC2
:1009100000D51C433C60DEF800407746D1F804C0A7
:100920009C435FEA8C3C00D51C433C60084F083F69
:100930003C68D1F804C09C435FEACC3C00D51C4322
:100940003C60521C102AFFF42FAFBDE8F88F000066
:10095000083C0140443802400030014000000240A1
:100960000004024000080240000C02400010024057
:100970000014024000180240001C02400AB18161CC
:1009800070470904FBE700000148806870470000D9
:100990000800002070B5040025D094F83D00002523
:1009A00020B984F83C50204600F0B8F8242084F8A0
:1009B0003D002068016821F00101016020680168A4
:1009C00041F4004101602068016821F400410160A8
:1009D00000F000FA4D4A6168914201D84C4900E0AC
:1009E0004C49884201D2012070BD4B492368B0FBBD
:1009F000F1F15E6826F03F060E435E606368934245
:100A000006D94FF4967359434FF47A73B1FBF3F15F
:100A10002368491C1E6A26F03F063143196261684B
:100A2000914210D84900401EB0FBF1F2521CC2F3B3
:100A30000B02042A01D2042022E0B0FBF1F0401C9A
:100A4000C0F30B001CE0A268F2B301EBC10303EB9F
:100A50000116431EB3FBF6F35B1C43F480431B05F6
:100A600049D092B301EBC10202EB0111401EB0FB71
:100A7000F1F0401CC0F30B0040F4804040F4004013
:100A80002168CA694CF6FF739A431043C861D4E9E0
:100A9000071001432068026822F0C0021143016080
:100AA000D4E9030101432068826848F2FF339A4386
:100AB00011438160D4E9050108432168CA6822F026
:100AC000FF021043C86001E00EE016E020680168F4
:100AD00041F0010101602564202084F83D00256378
:100AE00084F83E50002070BD01EB4106431EB3FB6D
:100AF000F6F35B1CB3E70120C2E701EB4101401EA6
:100B0000B0FBF1F0401CC0F30B00B7E7A08601007A
:100B100080841E0000093D0040420F0010B586B0E1
:100B2000044614216846FFF783FB14492068884275
:100B300021D113480021026842F0020202600068DD
:100B400000F0020005904FF4407000901220CDE9B3
:100B50000101032003900420049069460948FFF72F
:100B600015FE07481030016841F40011016000686B
:100B700000F40010059006B010BD000000540040C5
:100B80003038024000040240024881680278114473
:100B900081607047080000200B4810B5016841F4DF
:100BA00000710160016841F480610160016841F4F5
:100BB00080710160032000F061F80F2000F006F85A
:100BC00000F024F8002010BD003C024070B50D4D2F
:100BD00004464FF47A712878B1FBF0F00A490968AD
:100BE000B1FBF0F000F0BAFD48B9102C07D200229A
:100BF0002146501E00F022F800206C6070BD0120DC
:100C000070BD000008000020140000200A4808B54C
:100C1000016841F480410160006800F48040009068
:100C20000548001F016841F080510160006800F034
:100C30008050009008BD000044380240F0B40E4BD4
:100C40001B680C46C3F30223C3F10705042D00D92A
:100C50000425191D072901D2002300E0DB1E01260F
:100C600006FA05F1491E214099409E40761E164025
:100C70003143F0BC02F083B80CED00E0064900F00F
:100C8000070208684FF6FF03184040EA0220034AB3
:100C900010430860704700000CED00E00000FA050A
:100CA0002DE9F0470E46050065D0DFF81481D8F82D
:100CB0000000F7B200F00700B04207D288F80070D9
:100CC000D8F8000000F00700B04254D128683D4C2D
:100CD000810712D5400703D5206840F4E05020601A
:100CE0002878000703D5206840F460402060206821
:100CF000A96820F0F000084320602878C0072DD0B4
:100D0000304968680839012812D0022813D0032816
:100D100011D00968890700292DDA216821F0030123
:100D200001432160FFF730FE814641F2883A0EE030
:100D300009688903EFE709688901ECE7FFF724FEFA
:100D4000A0EB0901514502D90320BDE8F0872068D6
:100D5000696800F00C00B0EB810FEFD1D8F80010FB
:100D6000404601F00701B14207D90770006800F062
:100D70000700B04201D00120E7E72878400705D5F9
:100D80002068E96820F4E0500843206028780007D4
:100D900006D52068296920F4604040EAC10020603F
:100DA00000F038F82168084AC1F30311515CC840CB
:100DB0000649086006480068FFF708FF0020C4E7FE
:100DC000003C024008380240F62D000814000020C4
:100DD0000C0000200448054900680968044AC1F372
:100DE0008221515CC840704714000020083802403E
:100DF000062E00080448054900680968044AC1F342
:100E00004231515CC840704714000020083802404D
:100E1000062E0008154810B5006810F00C021448A2
:100E200013D04110042A0FD0082A0ED10F4C241FD2
:100E30002268236802F03F025B0207D52068C0F3F6
:100E40008810A0FB010106E0084610BD2168C1F32F
:100E50008811A1FB00010023FFF7B2F92168C1F35B
:100E60000141491C4900B0FBF1F010BD08380240B7
:100E70000024F4002DE9F84F04006ED02078DFF84C
:100E80004C93C007A9F104054AD009F10400016898
:100E9000C1F38101012908D00068C0F38100022854
:100EA0000AD1D9F80000400206D52868800337D55A
:100EB00060680028E1D033E06068B0F5803F10D072
:100EC000B0F5A02F286810D020F480302860286862
:100ED00020F4802028606068A8B1FFF755FD064621
:100EE0000DE0286840F48030F4E740F4802028606A
:100EF000F7E700BFFFF748FD801B642873D8286818
:100F00008003F7D50CE0FFF73FFD064605E000BF84
:100F1000FFF73AFD801B6428F0D828688003F7D4D7
:100F20002078DFF8AC8280074FF0000A3ED5A74852
:100F3000001D016811F00C0F08D00068C0F381009B
:100F400002280BD1D9F80000400207D42868800796
:100F500016D5E068012800D112E033E1E068B8B1AD
:100F60000120C8F80000FFF70FFD064605E000BFAE
:100F7000FFF70AFD801B0228C0D828688007F7D534
:100F80002868216920F0F80040EAC10028600DE0DF
:100F9000C8F800A0FFF7F8FC064604E0FFF7F4FCF1
:100FA000801B02281FD828688007F7D42078000704
:100FB00022D5864F87486169703771B10121016080
:100FC000FFF7E2FC064604E0FFF7DEFC801B022888
:100FD00009D838688007F7D50EE0C0F800A0FFF701
:100FE000D3FC064605E082E0FFF7CEFC801B02281A
:100FF0007DD838688007F7D42078400768D5DFF8B7
:10100000CCB100270BF13C0BDBF80000C0000BD487
:10101000DBF8001041F08051CBF80010DBF8000045
:10102000012700F0805000906B4E3068C00510D44E
:10103000306840F480703060FFF7A6FC009005E057
:10104000FFF7A2FC0099401A022850D83068C0056A
:10105000F6D55E4EA0686C3601280FD005283068A2
:1010600010D020F001003060306820F004003060C3
:10107000A068B8B1FFF788FC00900FE0306840F03E
:101080000100F4E740F004003060F7E7FFF77CFC74
:101090000099411A41F28830814266D83068800751
:1010A000F4D50EE0FFF770FC009007E0FFF76CFC52
:1010B0000099411A41F28830814256D83068800741
:1010C000F4D42FB1DBF8001021F08051CBF80010E0
:1010D000A069C8B33D49091D0968C1F3810102290E
:1010E0004AD00228504607D0C8F8600000E03CE033
:1010F000FFF74AFC04463BE04746C8F86000FFF7AC
:1011000043FC064605E000BFFFF73EFC801B0228BB
:101110002BD828688001F7D4D4E907010843A16AD5
:101120002E4A490802EB0141626A41EA82110843F2
:1011300094F82C1040EA0161C9F8001001203866CB
:10114000FFF722FC044606E03EE000BFFFF71CFC70
:10115000001B022809D828688001F7D534E000BFB9
:10116000FFF712FC001B022802D90320BDE8F88F0C
:1011700028688001F4D427E00128F7D0D9F80000CE
:10118000E26900F4800191421CD1226A00F03F0123
:10119000914217D147F6C071626A0140B1EB821FDC
:1011A00010D1A26A4FF0FF3300F4403103EB52023A
:1011B000B1EB024F06D194F82C1000F07060B0EB48
:1011C000016F01D00120D1E70020CFE704380240B1
:1011D00000004742800E4742007000400000FFFFC1
:1011E0002DE9FE430446002603200D4684F8340012
:1011F000606C03285ED0B5F5805F5BD04FF400676C
:1012000000204FF08068BD421FD1814600900190C0
:101210000021206800F09FFF800113D4694620461A
:1012200001F02AFA07000DD10198400334D5B4F833
:1012300050000104206800F0BAFF070002D102212B
:10124000206823E0A06B384328E01DB1A06B40F07C
:10125000006023E08146009001900021206800F0AA
:101260007AFF8001EED46946204601F005FA0700B6
:10127000E8D10198C0030FD5B4F8500001042068EC
:1012800000F095FF0700DDD10021206800F0DBFFB2
:101290000700D7D14F46D5E74746D3E7A063A06BF9
:1012A000144F4FF0010848B12068876384F83480F8
:1012B00001260EE0A06B40F08050EFE7211DD4E93D
:1012C000050C0EC9CDE90050CDF808C0206800F02B
:1012D00045FF4FF40071206800F09CFF28B12168A1
:1012E0008F63A16B0143A163012684F834803046EB
:1012F000BDE8FE83FF054000F0B5426E920F0A7014
:10130000426EC2F383624A70426EC2F301628A7017
:10131000426E120CCA70B0F86420120A0A7190F87A
:1013200064204A71826E120DCA80826EC2F303423B
:101330000A72B0F86820C2F3C0324A72B0F868206E
:10134000C2F380328A72B0F86820C2F34032CA72A7
:10135000B0F86820C2F300320A7300264E73426C64
:101360004FF40075012462B1012A3AD0026847495E
:101370009163816B41F08051816380F8344001209A
:10138000F0BDB0F86820C36E9205120D42EA937268
:101390000A61C26EC2F3C2620A75C26EC2F3026211
:1013A0004A75C26EC2F342528A75C26EC2F382425D
:1013B000CA75C26EC2F3C2320A760A69521C42650D
:1013C0000B7E03F007039B1C9A4042650B7A03F0E7
:1013D0000F0704FA07F383655B0A5A43C0E9172530
:1013E0000EE090F86820C36E9206920A42EA134219
:1013F0000A610A69521C92024265C0E916520566EA
:1014000030F86C2FC2F3803201F8192F0288C2F332
:10141000C6124A70027802F07F028A704268D20FC8
:10142000CA704268C2F341720A714268C2F38262B2
:101430004A714268C2F383528A714268C2F34052D1
:10144000CA710E724268C2F300424A728288C2F3C5
:10145000C0328A728288C2F38032CA728288C2F332
:1014600040320A738288C2F300324A738288C2F320
:1014700081228A738288C2F30122CA730079C0F381
:10148000460008744C740020F0BD0000FF054000C9
:1014900070B504000ED094F83400002518B92577F3
:1014A000204600F04FF8032084F83400204600F076
:1014B0000BF808B1012070BDA5632563012084F8F5
:1014C0003400002070BD0000FEB5002504467620E3
:1014D0000095CDE9015029460B460A46206800F0E8
:1014E0003DFE48BB154E46F8A05F206800F048FE60
:1014F000012535600220FFF7E3F8204601F0A4F94A
:1015000030B100BF84F83450A16B0143A16313E0F4
:10151000204601F021F90028F4D14FF40071206831
:1015200000F078FE002808D0226805499163A16B7D
:101530000143A16384F834500120FEBD00802542A0
:10154000FF054000F0B587B0044614216846FEF759
:101550006FFE1D492068884233D11C480024016871
:1015600041F400610160006800F4006005901748D4
:101570001438016841F004010160016801F00401C0
:101580000591016841F0080101600068022500F042
:10159000080005904FF4F850CDE9000502AA032693
:1015A0000C2782E8D00069460948FFF7EFF80420CD
:1015B000CDE9000502AA694682E8D0000548FFF798
:1015C000E5F807B0F0BD0000002C014044380240AF
:1015D00000080240000C024070B5040009D0606AA7
:1015E000002540B125616561A56294F8510040B1C4
:1015F0000CE0012070BD6068B0F5827FF4D0E56139
:10160000F2E784F85050204600F044F8022084F8B5
:1016100051002068016821F040010160A088218903
:1016200000F4827001F404410843A18901F40061CF
:101630000843217C01F002010843217D01F00101F2
:101640000843218B01F400710843217F01F0380128
:10165000084394F8201001F080010843218D01F423
:101660000051084321680860A069042101EA104084
:1016700094F8241001F010010843216848602068A4
:10168000C16921F40061C1616565012084F85100E0
:10169000002070BD10B586B0044614216846FEF7E0
:1016A000C7FD13492068884220D1124800210268F2
:1016B00042F480520260006800F4805005900D48AA
:1016C0001438026842F001020260006800F0010074
:1016D0000590E02000900220CDE901010320039055
:1016E0000520049069460448FFF750F806B010BD85
:1016F00000300140443802400000024070B51546F9
:101700000E46040003D094F8490010B107E0012010
:1017100070BD002084F84800204600F01DF804F158
:1017200008012068FEF776FE3146A2682068FEF7C1
:10173000A5FED4E901022946236BFEF74DFE216880
:10174000A06851F8202042F0010241F82020012039
:1017500084F84900002070BDFEF7C4BF10B5401EDC
:10176000B0F1807F01D3012010BD4FF0E024606113
:101770000F21601701F003FB0020A061072020610A
:10178000002010BD70B590F83C20012A32D0012411
:1017900080F83C40022280F83D2003685A689D682A
:1017A00022F070060A6832435A60134B02689A426C
:1017B00014D0B2F1804F11D0104B9A420ED0104B82
:1017C0009A420BD00F4B9A4208D00F4B9A4205D049
:1017D0000E4B9A4202D00E4B9A4204D1496825F032
:1017E00080031943916080F83D40002180F83C104F
:1017F000084670BD022070BD00000140000400409A
:1018000000080040000C004000040140004001407E
:101810000018004010B5040003D094F83D0010B14A
:1018200007E0012010BD002084F83C00204600F0B5
:101830001FF8022084F83D00211D206801F0B4F853
:10184000012084F8460084F83E0084F83F0084F8C4
:10185000400084F8410084F8420084F8430084F892
:10186000440084F8450084F83D00002010BD0000CD
:1018700008B500680649884208D10648016841F069
:1018800001010160006800F00100009008BD000047
:10189000000001404438024070B5044690F83C0016
:1018A0000025012817D0012684F83C60022084F826
:1018B0003D002068826822F0770222F47F42826035
:1018C0000868502838D00DDC20284FD005DC90B3B4
:1018D000102811D14AE0022070BD302846D040289F
:1018E0000AD13BE060282FD070280DD0B0F5805F82
:1018F00003D0B0F5005F12D0012584F83D600020D0
:1019000084F83C00284670BDCB68D1E901212068ED
:1019100001F0B6F82068816841F0770109E0CB68F2
:10192000D1E90121206801F0ABF82068816841F419
:1019300080418160E1E719E0CA684968206801F0E8
:1019400073F95021206806E0CA684968206801F0F0
:101950007CF96021206801F09DF8CEE7CA684968EB
:10196000206801F061F940212068F4E7226801460F
:101970001046F0E710B586B0044614216846FEF71D
:1019800057FC0D492068884214D10C480021026898
:1019900042F004020260006800F00400059040205C
:1019A00000900220CDE90101CDE903106946044809
:1019B000FEF7ECFE06B010BD0004004030380240D7
:1019C0000008024070B5044690F83C0000260D4621
:1019D00001280FD0012084F83C006AB1042A1DD0F0
:1019E000082A2FD00C2A3FD00126002084F83C0082
:1019F000304670BD022070BD206801F053F82068A9
:101A0000816941F0080181612068816921F0040148
:101A10008161206881692A69114311E0206801F021
:101A200071F82068816941F40061816120688169F1
:101A300021F480618161206881692A6941EA02217B
:101A40008161D2E7206801F093F82068C16941F014
:101A50000801C1612068C16921F00401C1612068E9
:101A6000C1692A69114311E0206801F0B5F82068C6
:101A7000C16941F40061C1612068C16921F48061DC
:101A8000C1612068C1692A6941EA0221C161ACE7EC
:101A900010B5040003D094F83D0010B107E0012018
:101AA00010BD002084F83C00204600F01FF8022002
:101AB00084F83D00211D206800F076FF012084F8A5
:101AC000460084F83E0084F83F0084F8400084F823
:101AD000410084F8420084F8430084F8440084F80C
:101AE000450084F83D00002010BD000008B50068E6
:101AF0000649884208D10648016841F002010160A8
:101B0000006800F00200009008BD000000040040E2
:101B10004038024070B5040004D094F8410000251C
:101B200010B106E0012070BD84F84050204600F05E
:101B300023F8242084F841002068C16821F4005172
:101B4000C160204601F094F82068016921F49041B9
:101B500001612068416921F02A0141612068C16862
:101B600041F40051C1606564202084F8410084F88C
:101B700042006563002070BDF0B587B004461421B3
:101B80006846FEF755FB3F493D4F266800233D4A16
:101B90001039032402253C48BE4217D1166846F48A
:101BA00000261660126802F4002205920A6842F0CC
:101BB00001020A600968029301F001010591CDE973
:101BC00000450821CDE9034169461EE0DFF8BCC0AD
:101BD000072766451DD12B4A121D166846F01006D0
:101BE0001660126802F0100205920A6842F00102C3
:101BF0000A60096802AA01F0010105914FF4C06171
:101C0000CDE9001582E898006946FEF7BFFD07B0F0
:101C1000F0BDDFF87CC0664514D1166846F4003686
:101C20001660126802F4003205920A6842F001025E
:101C30000A60096801F0010105910C21CDE9001548
:101C4000694618E013488642E1D1106840F48020CC
:101C50001060106800F480200590086840F00200D1
:101C600008600868694600F0020005904FF4406083
:101C7000CDE90005084802AE86E89800C5E70000F7
:101C8000004C00404038024000000240001001407B
:101C9000004400400048004000040240FEE700000D
:101CA0007FB50024154800940194029412490394CE
:101CB00001604FF48031C0E901140125046105760B
:101CC00080F820400E49C0E90A14C561C46080F85C
:101CD00030404561FEF79AFC08B1FEF77BFB0A2015
:101CE000CDE90005694602940448FEF7E9FB0028A7
:101CF00001D0FEF76FFB7FBD0020014018000020DF
:101D00000100000F00B587B01C216846FEF790FA6D
:101D100016484FF02041102201601549416006210C
:101D200081600021C160C0E904128161C1611302B8
:101D30000162C0E90913C1620163416381634164C7
:101D40000F20CDE9001002AB082083E80700112026
:101D5000CDE90501002269460448FFF7CFFC0028C1
:101D600001D0FEF737FB07B000BD00006000002087
:101D7000040100A02DE9F04F87B014216846FEF75A
:101D800057FA44480024016841F0040101600168E9
:101D900001F004010591016841F020010160016832
:101DA00001F020010591016841F0800101600168A6
:101DB00001F080010591016841F0010101600168B5
:101DC00001F001010591016841F0400101600168E5
:101DD00001F040010591016841F0100101600168C6
:101DE00001F010010591016841F0020101600168F4
:101DF00001F002010591016841F0080101600068ED
:101E0000DFF8949000F008004FF480650590002200
:101E100029464846FEF7B2FDDFF880A04FF485560C
:101E2000002231465046FEF7A9FDDFF874B0AF003E
:101E3000002239465846FEF7A1FD4FF480480022A3
:101E400041461848FEF79AFD00950125CDE9015459
:101E5000694648460394FEF799FC0096CDE9015483
:101E6000694650460394FEF791FC0097CDE9015472
:101E7000694658460394FEF789FCCDF80080CDE909
:101E80000154694607480394FEF780FC07B0BDE89B
:101E9000F08F00003038024000140240000402407D
:101EA00000000240001802400D4810B50B490160C7
:101EB0000C49416000214FF480428160C0E9031267
:101EC00041618161C1610162FEF764FD002803D0B8
:101ED000BDE81040FEF77EBA10BD0000005400407F
:101EE000B0000020A086010010B50E480C49002269
:101EF000C0E90012CC148260C0E90324426182610F
:101F0000FFF7C6FA08B1FEF765FA21460548FFF764
:101F100067F9002803D0BDE81040FEF75BBA10BD9A
:101F2000002C0140040100200F4810B50D4901604C
:101F30004FF48271416000218160C1604FF40072F2
:101F40000161C0E90512C1610162416281620A2139
:101F5000C162FFF741FB002803D0BDE81040FEF747
:101F600039BA10BD003001408801002010B586B09C
:101F70000024174800940194029403940494134994
:101F80000594C0E900144FF6FF71C0E902410461F5
:101F900044618461FFF73EFC08B1FEF71BFA4FF481
:101FA0008050009069460A48FFF776FC08B1FEF7BA
:101FB00011FA049404A906480594FFF7E3FB0028EE
:101FC00001D0FEF707FA06B010BD00000000014086
:101FD000E001002010B58AB0002407941C21684657
:101FE0000894FEF725F916481449016040F28F6104
:101FF000C0E901142521C0E903148461FFF748FDFD
:1020000008B1FEF7E7F9079407A90D480894FFF710
:10201000B9FB08B1FEF7DEF96020CDE900040294B7
:102020000022694606480494FFF7CCFC08B1FEF78D
:10203000D1F90348FFF79EFC0AB010BD0004004030
:10204000280200200C4810B50A4901604FF4E13124
:102050004160002181600C22C160C0E904128161ED
:10206000C161FFF757FD002803D0BDE81040FEF71F
:10207000B1B910BD004C0040700200200C4810B5F2
:102080000A4901604FF4E1314160002181600C2276
:10209000C160C0E904128161C161FFF73BFD002806
:1020A00003D0BDE81040FEF795B910BD0010014007
:1020B000B80200200C4810B50A4901604FF4E13124
:1020C0004160002181600C22C160C0E9041281617D
:1020D000C161FFF71FFD002803D0BDE81040FEF7E7
:1020E00079B910BD00440040000300200C4810B531
:1020F0000A4901604FF4E1314160002181600C2206
:10210000C160C0E904128161C161FFF703FD0028CD
:1021100003D0BDE81040FEF75DB910BD0048004097
:1021200048030020FEE7FEE770470A6842624A68FB
:102130008262D1E902231A43D1E904310B43C16A17
:102140001A4321F0F7011143C16200207047006873
:1021500000F00300704708444069704770B50DF106
:10216000100C11439CE87000234319432943426833
:10217000314347F6FF639A430A434260002070BD33
:102180000321016000207047D0F8800070470A6882
:102190008260D1E901231A43D1E903310B43C168BD
:1021A0001A436FF30B011143C1600020704710B553
:1021B00085B004463720CDE9001040200290002071
:1021C00003904FF48060049069462046FFF7DFFFDC
:1021D00041F288323721204600F004F905B010BDE5
:1021E00010B504460A4885B001432920CDE9001006
:1021F00040200290002003904FF4806004906946D4
:102200002046FFF7C4FF204600F0A4F905B010BD3A
:102210000000108010B585B004461020CDE90010F4
:1022200040200290002003904FF4806004906946A3
:102230002046FFF7ACFF41F288321021204600F023
:10224000D1F805B010BD10B585B004460620CDE923
:10225000001040200290002003904FF48060049012
:1022600069462046FFF793FF41F288320621204657
:1022700000F0B8F805B010BD30B585B000240546B3
:10228000009401944FF480600294CDE903406946C4
:102290002846FFF77CFF0B484FF4FA510068B0FB6B
:1022A000F1F041F288314843401E03D24FF0004024
:1022B00005B030BD696B0906F6D5C520A863204678
:1022C000F6E700001400002010B585B004464FF476
:1022D000D5700090082001904020029000200390CB
:1022E0004FF48060049069462046FFF750FF204677
:1022F00000F096F905B010BD10B585B00446072072
:10230000CDE9002040200290002003904FF480602F
:10231000049069462046FFF73AFF41F288320721D0
:10232000204600F05FF805B010BD10B585B004463A
:1023300000210220CDE90010C020CDE902014FF4B8
:102340008060049069462046FFF721FF204600F098
:10235000D9F805B010BD10B585B004460920CDE907
:102360000010C0200290002003904FF48060049081
:1023700069462046FFF70BFF204600F0C3F805B082
:1023800010BD10B585B0044600213320CDE9001002
:102390004020CDE902010001049069462046FFF784
:1023A000F6FE41F288323321204600F01BF805B0DA
:1023B00010BD30B585B00C46054600210320CDE99F
:1023C00000104020CDE90201000104906946284632
:1023D000FFF7DDFE22460321284600F0DDF805B0B8
:1023E00030BD0000454B10B51B684FF4FA54B3FBE9
:1023F000F4F353435B1E02D24FF0004010BD426B1A
:1024000012F0450FF6D01205F4D4426B520703D5F3
:1024100004218163084610BD426BD20702D001211E
:10242000816305E0C52282630269D2B28A4201D08B
:10243000012010BD0021FFF78EFE3149084201D175
:10244000002010BD002802DA4FF0007010BD4100DE
:1024500001D5402010BD810001D5802010BDC100F4
:1024600002D54FF4807010BD010102D54FF4007009
:1024700010BD410102D54FF4806010BDC10102D5ED
:102480004FF4006010BD010202D54FF4805010BD22
:10249000410202D54FF4005010BD810202D54FF425
:1024A000804010BDC10202D54FF4004010BD410371
:1024B00002D54FF4003010BD810302D54FF48020C7
:1024C00010BDC10302D54FF4002010BD010402D598
:1024D0004FF4801010BD410402D54FF4001010BD20
:1024E000810402D54FF4800010BD000702D54FF4DF
:1024F000000010BD4FF4803010BD0000140000201B
:1025000008E0FFFD12494FF4FA520968B1FBF2F1FD
:1025100041F288325143491E02D24FF000407047C9
:10252000426B12F0450FF6D01205F4D4416B490707
:1025300003D50421816308467047416BC90703D066
:102540000121816308467047C521816300207047DF
:10255000140000200F494FF4FA520968B1FBF2F160
:1025600041F288325143491E02D24FF00040704779
:10257000426B12F0450FF6D01205F4D4416B4907B7
:1025800003D50421816308467047C521816300207B
:10259000704700001400002030B5204B4FF4FA546F
:1025A0001B68B3FBF4F341F2883463435B1E02D231
:1025B0004FF0004030BD446B14F0450FF6D02405B9
:1025C000F4D4436B5B0703D504218163084630BD17
:1025D000436BDB0702D00121816303E00369DBB2B7
:1025E0008B4201D0012030BDC52181630021FFF75E
:1025F000B2FD10F4604F04D0410406D54FF40050F2
:1026000030BD000C1080002030BD000402D54FF416
:10261000805030BD4FF4803030BD000014000020E9
:1026200014494FF4FA520968B1FBF2F141F28832D1
:102630005143491E02D24FF000407047426B12F0E6
:10264000450FF6D01205F4D4416B490703D5042198
:10265000816308467047416BC90703D0012181633C
:1026600008467047416B490601D54021816300202F
:1026700070470000140000202DE9F04788B00D4697
:102680000446FEF781F900268246009601963746F9
:1026900008212068FFF7BEFD00282CD1B4F85000B7
:1026A00001042068FFF783FD002824D1401E4FF06D
:1026B0000808CDE9020830204FF00209CDE90409ED
:1026C0000120CDE9067002A92068FFF72EFD2068E1
:1026D000FFF757FE00280ED16F462068416B11F0BE
:1026E0002A0F0BD0416B090702D4416B89051AD51B
:1026F000C0F83880082008B0BDE8F087416B890237
:1027000005D5FFF741FD47F82600761C02E0416B36
:102710008904E7D5FEF738F9A0EB0A00401CDCD1AC
:102720004FF00040E7E7416B890703D5C0F83890C8
:102730000220E0E7416B890603D52021816308462A
:10274000D9E740F23A518163019800BA28600098B5
:1027500000BA68600020CEE710B590B004460120B2
:10276000ADF838002068FFF7F2FC002854D0606C08
:10277000032842D02068FFF7D8FD00284AD1002165
:102780002068FFF7E8FC606704212068FFF7E3FC9E
:10279000A06708212068FFF7DEFCE0670C212068B5
:1027A000FFF7D9FCC4F88000606C032825D00EA97F
:1027B0002068FFF7FEFD00282CD1606C03281CD098
:1027C000BDF83800206501042068FFF7C4FD00282B
:1027D00020D100212068FFF7BEFC6066042120683C
:1027E000FFF7B9FCA06608212068FFF7B4FCE0669B
:1027F0000C212068FFF7AFFC206704212068FFF759
:10280000AAFC000DE06403A92046FEF775FD30B177
:102810004FF0805010B010BD4FF08060FAE7B4F870
:102820005000002302042068FFF766FD0028F1D164
:1028300004F1100007C88DE8070094E80F00FFF7C7
:102840008DFC0020E6E700002DE9F84F0026044645
:1028500000963546B0460068FFF70EFD002827D1E8
:102860002068FFF731FD4FF0805B4FF001094FF614
:10287000FF7748B1A6642068FFF7FEFC002817D157
:10288000A06C012802D020E0C4F848900021206804
:10289000FFF78DFC58B918E000212068FFF787FC8E
:1028A000002805D151462068FFF79AFC10B1584620
:1028B000BDE8F88F00212068FFF74DFC05464FEA80
:1028C000D0780098401C009002E0DFF82CA000981F
:1028D000B84202D2B8F1000FDED00098B84202D35D
:1028E0004FF08070E4E7680002D5C4F8449000E03F
:1028F00066640020DCE70000000010C17047FEF7AE
:1029000043B9000030B593B030216846FDF790FC24
:1029100014210CA8FDF78CFC1D480025016841F02E
:1029200080510160006800F08050119019480168E2
:1029300041F4804101600068022400F4804011905D
:1029400001200090000401908001CDE906400420A0
:102950000890A820CDE9090407200B906846FEF7EF
:1029600089FA08B172B6FEE70CA90F2081E83100A0
:102970004FF4A0500F904FF48050109005210CA8F8
:10298000FEF78EF9002801D072B6FEE713B030BD15
:1029900040380240007000400248016841F4700174
:1029A0000160704788ED00E0F0B50268294C2A4DBF
:1029B0002A4E2B4F2B4B4FF0804CA04209D0604544
:1029C00007D0A84205D0B04203D0B84201D0984207
:1029D00004D122F0700E4A6842EA0E02A0421BD0D7
:1029E000604519D0A84217D0B04215D0B84213D0D4
:1029F000984211D01C4DA8420ED01C4DA8420BD0BD
:102A00001B4DA84208D01B4DA84205D01A4DA84224
:102A100002D01A4DA84203D122F44075CA682A4355
:102A20004D6922F080022A4302608A68C2620A6805
:102A30008262A04201D0984201D10969016301215B
:102A400041610169C90703D0016921F001010161F8
:102A5000F0BD0000000001400004004000080040FC
:102A6000000C0040000401400040014000440140CF
:102A70000048014000180040001C004000200040B9
:102A800010B5846842EA032224F47F440A432243B7
:102A9000826010BD826822F070020A4342F0070192
:102AA00081607047F0B5036A026A22F00102026297
:102AB00042688469124E24F073050C682C4323F09D
:102AC00002058B682B430D4DA84201D0B04205D1C1
:102AD00023F00807CB683B4323F00403A84201D04E
:102AE000B04205D14D6922F4407215438A692A43E8
:102AF00042608461496841630362F0BD00000140A7
:102B000000040140F0B5026A036A23F01003036277
:102B1000436884690D6824F4E64444EA05248D681A
:102B200022F0200242EA05120F4D104EA84201D0B9
:102B3000B04206D1CF6822F0800242EA071222F0AA
:102B40004002A84201D0B04207D14D6923F440634E
:102B500043EA85038D6943EA8503436084614968DC
:102B600081630262F0BD00000000014000040140EA
:102B7000F0B5026A036A23F4807303624368C46990
:102B800022F4007224F073050C68124E2C438D68F9
:102B900042EA05220E4DA84201D0B04206D1CF68CC
:102BA00022F4006242EA072222F48062A84201D0A5
:102BB000B04207D14D6923F4405343EA05138D69B0
:102BC00043EA05134360C4614968C1630262F0BD12
:102BD000000001400004014030B5046A026A22F49A
:102BE000805202624268C3690D6823F4E64343EAF7
:102BF00005238D6824F4005444EA0534084DA842A6
:102C000002D0084DA84204D14D6922F4804242EA24
:102C100085124260C36149680164046230BD0000EE
:102C2000000001400004014010B5036A046A24F06A
:102C300001040462846924F0F00444EA021423F0DD
:102C40000A020A438461026210BD10B5036A046A75
:102C500024F010040462846923F0A00324F4704477
:102C600044EA023243EA01118261016210BD0000B0
:102C700070B5044600680169E26821F440511143CF
:102C800001612169A068E269084361691143084351
:102C90002168CA6849F20C639A430243CA602068FB
:102CA0004169A26921F440711143416131492068B1
:102CB000884202D03049884202D1FEF79BF801E0F9
:102CC000FEF788F8E2690023192164253226B2F55F
:102CD000004F626828D0A0FB0101930F9200FDF71E
:102CE0006FFA0146B0FBF5F06FF01802504301EBAC
:102CF000800006EB0010B0FBF5F000F0F002B1FB35
:102D0000F5F002EB0012B1FBF5F06FF01803584339
:102D100001EB800006EB0010B0FBF5F000F00F00B7
:102D200021681044886070BDA0FB010192185B41CE
:102D3000FDF746FA0146B0FBF5F00201B1FBF5F0F4
:102D40006FF01803584301EB800006EBC000B0FBA6
:102D5000F5F000F0F80002EB4002B1FBF5F058434B
:102D600001EB800006EBC000B0FBF5F000F00700BF
:102D7000D6E700000010014000140140FEE70907FB
:102D8000090E002804DB00F1E02080F800147047F1
:102D900000F00F0000F1E02080F8141D704702E001
:102DA00008C8121F08C1002AFAD1704770470020D6
:102DB00001E001C1121F002AFBD17047FDF7ECFEB4
:102DC000FFF7A0FDFEF7D6FFFEF76AFFFEF79AFFBA
:102DD000FFF76AF8FFF7CAF8FFF7FCF8FFF732F9D8
:102DE000FFF74CF9FFF766F9FFF780F9FFF77CF87A
:102DF000FFF79AF8FEE70000000000000000010263
:102E00000304060708090000000001020304000093
:102E1000302E000800000020180000009E2D000841
:102E2000482E00081800002078070000AE2D00088A
:102E30000000000000000000010000001000000081
:082E4000000000000024F40072
:040000050800018965
:00000001FF
