:020000040800F2
:10000000A007002455030008DB4300089B390008C3
:10001000D94300081B0E0008654F000800000000CF
:10002000000000000000000000000000B9460008C9
:100030001D0E000800000000754400083D47000840
:100040006F0300086F0300086F0300086F030008C8
:100050006F0300086F0300086F0300086F030008B8
:100060006F0300086F0300086F0300086F030008A8
:100070006F0300086F0300086F0300086F03000898
:100080006F0300086F0300086F0300086F03000888
:100090006F0300086F0300086F0300086F03000878
:1000A0006F0300086F0300086F0300086F03000868
:1000B0006F0300086F0300086F030008A9390008E8
:1000C0009D3900086F0300086F0300086F030008E4
:1000D0006F030008594F00086F0300086F03000802
:1000E0006F0300086F030008000000006F030008A2
:1000F0006F0300086F0300086F0300086F03000818
:100100006F0300086F0300086F0300086F03000807
:100110006F0300086F0300086F0300086F030008F7
:100120006F0300086F0300086F0300086F030008E7
:100130006F0300086F0300086F0300086F030008D7
:1001400000000000000000000000000000000000AF
:100150006F0300086F0300086F0300086F030008B7
:100160006F0300086F0300086F0300086F030008A7
:100170006F0300086F0300086F0300080000000011
:100180006F0300086F0300086F0300086F03000887
:100190006F0300086F0300086F0300086F03000877
:1001A0006F0300086F0300086F0300086F03000867
:1001B0006F0300086F0300086F0300086F03000857
:1001C0006F0300086F0300086F0300086F03000847
:1001D0006F0300086F0300086F0300086F03000837
:1001E0006F0300086F0300086F0300086F03000827
:1001F0006F0300086F0300086F0300086F03000817
:100200006F0300086F0300086F0300086F03000806
:100210006F0300086F0300086F0300086F030008F6
:100220006F0300086F0300086F0300080000000060
:100230006F0300086F030008000000006F03000850
:100240006F0300086F0300086F0300086F030008C6
:100250006F0300086F0300086F0300086F030008B6
:100260006F0300086F0300086F0300086F030008A6
:100270006F0300086F0300086F0300080000000010
:100280006F0300086F0300086F0300080000000000
:10029000000000006F03000800F002F800F04AF8C8
:1002A0000AA090E8000C82448344AAF10107DA45D1
:1002B00001D100F03FF8AFF2090EBAE80F0013F0D9
:1002C000010F18BFFB1A43F001031847004E00004E
:1002D000204E0000103A24BF78C878C1FAD85207DF
:1002E00024BF30C830C144BF04680C6070470000B0
:1002F0000023002400250026103A28BF78C1FBD82F
:10030000520728BF30C148BF0B607047642900F016
:100310000781002070471FB504F0B6FE00F03EFDD7
:1003200004000020002104F099FE401C60601FBD05
:1003300010B510BD00F0F6FC1146FFF7ECFF04F01D
:1003400023FE00F01DFD03B4FFF7F2FF03BC00F035
:1003500029FD00000948804709480047FEE7FEE7FD
:10036000FEE7FEE7FEE7FEE7FEE7FEE7FEE7FEE765
:1003700004480549054A064B704700001D4800081F
:1003800099020008A0010024A0070024A003002473
:10039000A003002453EA020C00F069802DE9F04B21
:1003A0004FF00006002B1FBFB3FA83F503FA05F4E4
:1003B00024FA05F65E4012BF1643B2FA82F502FA3D
:1003C00005F4C5F120051EBF22FA05FC44EA0C0421
:1003D000203556EA044C4FEA144418BF641C4FF011
:1003E00000084FF00009904271EB030C39D300294B
:1003F00019BFB1FA81F701FA07F6B0FA80F700FAEF
:1004000007F6C7F120071EBF20FA07FC46EA0C06D4
:100410002037B6FBF4FCA7EB0507103F07F01F0BD6
:10042000CBF120060CFA0BFB2CFA06F644BFB346C0
:100430000026202FA4BF5E464FF0000B5BEA060C9F
:1004400008BF4FF0010B19EB0B09ABFB027C48EB2B
:100450000608C01B06FB02CC0BFB03CC71EB0C01A6
:10046000C1E70B46024641464846BDE8F08B13B54E
:100470004FF000004FF00001AFF30080BDE81C40DA
:10048000704700000FB41CB50C0007AA009001D003
:100490002044401E074B7B4469460190069800F0BB
:1004A00018FA002C03D06946002000F025FA1CBC85
:1004B0005DF814FB690400002DE9F0410E46044686
:1004C000002020622046E168884730B3252805D007
:1004D000D4E901219047206A401CF2E7E1682046F8
:1004E00000278847050018D0A5F14100192802D837
:1004F00020354FF400673246294620462760FFF733
:1005000005FF40B1012804D0F61D26F00706083685
:10051000D8E7361DD6E72846DAE7206ABDE8F0813D
:100520002DE9F0410646002410687529314616A5CC
:1005300010D0AFF30080002802DA404213A507E094
:1005400031688A0701D512A502E0490704D511A533
:10055000012401E0AFF3008000210A2206F1240704
:1005600009E0B0FBF2FCB0FBF2F302FB1C00303000
:1005700078541846491C0028F3D123462A463046B1
:10058000BDE8F04100F047B9000000002D00000078
:100590002B000000200000000FB400B58DB010A9A2
:1005A000099000910B904FF0FF300A9000200C90C2
:1005B000064878440690064878446A4607900F99A2
:1005C00009A800F0BBF90DB05DF814FBA70300000B
:1005D000BF0300002DE9FF5F1D464FF0FF3B914632
:1005E0004FF000085F46D5E90146A96901987F1CD4
:1005F0008847296A824688470028F6D1BAF1FF3F2A
:100600000CD0002E24F4C06419DD600614D5BAF1B4
:100610002B0F09D0BAF12D0F0ED103E0584604B0CC
:10062000BDE8F09F44F48064A96901987F1C884765
:10063000761E8246002E02DDBAF1300F03D0B9F1EA
:10064000000F26D032E0A969761E01987F1C44F481
:1006500000748847002E824605DDBAF1780F06D077
:10066000BAF1580F03D0B9F1000F10D01EE0B9F164
:10067000000F02D0B9F1100F18D1A969761E0198A8
:100680007F1C24F4007488478246102002E0082072
:1006900000E00A20814609E0A96908FB0908761EE6
:1006A00001987F1C44F4007488478246002E05DDC3
:1006B0004946504600F02DF90028EDDAE969019825
:1006C0008847A00502D46FF00100A8E7E00725D114
:1006D000600613D5600502D5C8F1000000E0404671
:1006E00029680A1D2A600968220501D5087015E0ED
:1006F000220701D5088011E008600FE02868011D7D
:1007000029600068210502D580F8008006E02107F5
:1007100002D5A0F8008001E0C0F8008038467EE7EE
:1007200010B5431C02E010F8011B71B18107FAD12A
:100730004FF0013202C88C1A8C4314EAC211F9D06E
:10074000C01A0A0603D0C01E10BDC01A10BD0A048C
:1007500001D0801E10BD0902FCD0401E10BD10B596
:10076000203AC0F00B80B1E81850203AA0E81850A9
:10077000B1E81850A0E81850BFF4F5AF5FEA027C6A
:1007800024BFB1E81850A0E8185044BF18C918C0D9
:10079000BDE810405FEA827C24BF51F8043B40F87A
:1007A000043B08BF7047D20728BF31F8023B48BF5F
:1007B00011F8012B28BF20F8023B48BF00F8012B9D
:1007C00070474FF0000200B5134694469646203914
:1007D00022BFA0E80C50A0E80C50B1F12001BFF4FA
:1007E000F7AF090728BFA0E80C5048BF0CC05DF860
:1007F00004EB890028BF40F8042B08BF704748BFAE
:1008000020F8022B11F0804F18BF00F8012B704721
:100810007047704770472DE9F0470D46994692465C
:10082000044600F124080168880604D5E06921F037
:100830001001216000E00120A84201DD471B00E01B
:100840000027A1697A1902EB0900081AA061207833
:10085000C00602D42046AFF30080002608E0D4E9A9
:1008600001211AF806009047206A401C761C20627D
:100870004E45F4DB2078C0060AD52046AFF3008051
:1008800006E0D4E9012130209047206A401C206214
:10089000381EA7F10107F4DC07E0D4E9012118F8BC
:1008A00005009047206A401C2062281EA5F1010522
:1008B000F3DC2046AFF300802078000602D502204A
:1008C000BDE8F0870120FBE701694A1C0261087856
:1008D000704700B58FB0CDE9013100210591054980
:1008E0007944CDE9031011466846FFF7E5FD0FB0E6
:1008F00000BD0000E5FFFFFF0A6802F8010B0A6077
:100900007047D1E900239A4202D2531C0B60107049
:1009100070473A2800D2303820F02002412A01D313
:10092000A2F13700884201D34FF0FF30704700003A
:10093000026811441378016018467047D160054978
:1009400079445161044979441162002111611146D1
:1009500000F02EB8EDFFFFFF53000000426842B1E7
:10096000016811F8013B23B1521EC0E9001218467C
:1009700070470121C160881E704742685AB1C36840
:10098000016843B983688B4205D0491E521CC0E9F7
:100990000012002070474FF0FF30704710B504463A
:1009A00000F0E6F90068005D00F0010010BD0000F5
:1009B0002DE9F34F4FF0000A0C4656468DB001204A
:1009C0000C9001F10C000B9062690B98012190478B
:1009D000051E2DD0252D2CD0216A8847C0B1626913
:1009E0000B9801219047216A88470028F7D1626956
:1009F000411E0B98904700E0761CA1690D9888472E
:100A0000216A88470028F7D1E1690D988847DBE71C
:100A1000A1690D988847A842074601D1761CD3E703
:100A2000E1690D9888477F1C02D1BAF1000F6FD0A1
:100A30006BE162690B9800273D46394690472A28AA
:100A400004D162690B98012190470125DFF8D0821B
:100A500062690B9801219047A0F130010A290AD25E
:100A60004745E5DC07EB870100EB4107303FDFD46A
:100A700045F01005ECE7E90601D46FF000476C285B
:100A80000AD04C2814D0682815D06A280DD07428B4
:100A90001CD07A281AD01DE062690B98012190477A
:100AA0006C2802D045F0040514E045F002050DE085
:100AB00045F020050AE062690B98012190476828FB
:100AC00002D045F0080505E045F4006562690B9821
:100AD00001219047C4E9015765283DD019DC582809
:100AE0007AD00CDC452837D004DC252826D04128D4
:100AF0009ED131E046282FD0472899D12CE05B28A1
:100B000077D0612828D063287CD0642823D15AE08C
:100B1000F6E06F2848D008DC66281DD067281BD077
:100B2000692821D06E2816D127E0702845D0732877
:100B300068D0752847D078280DD14DE0A1690D986F
:100B40008847252805463FF469AFE1690D98884735
:100B50006D1C3FF46AAFD8E00D9923466A466FF0EA
:100B60000100AFF30080C5E045F0400023464FF0A0
:100B700000026060A80736D43EE0E8077FF447AF84
:100B80002068011D21600068290501D506701BE75A
:100B9000290701D5068017E7A90703D5F117C0E992
:100BA000006111E706600FE745F0400023464FF073
:100BB00008026060A80716D41EE040F60E0125EA80
:100BC0000100606016E045F0400023464FF00A0245
:100BD0006060A80707D40FE045F040006060A807F8
:100BE00008D5234610220D996FF00100AFF3008065
:100BF00080E007E0102223460D996FF00100FFF717
:100C0000E9FC77E04FF0000963284F46C8464B46A1
:100C1000CB4602D05B2806D038E0E80601D401209C
:100C2000A060012732E06269D4F80CB00B98012172
:100C300090475E2807D14FF0010949466269D4F810
:100C40000CB00B989047216939B900210A4603ABD3
:100C500043F82120491C0829FADBD8B3216949B39C
:100C600008F1010862690B98012190475D28F4D1D1
:100C7000B9F1000F09D0002003A951F82020D24378
:100C800041F82020401C0828F7DB03AB206900282E
:100C900020794FEA40701ED05B462246CDF8008096
:100CA000CDE901970D9900286FF0010020DAAFF32C
:100CB00000801FE0C11703AA00EBD1614B1121F0A6
:100CC0001F0102EB8302411A13680120884003438D
:100CD0001360C7E719E00D99224600286FF0010064
:100CE000009702DAAFF3008004E0AFF3008001E088
:100CF000AFF3008000280ADA401C06D10C9820B11E
:100D00004FF0FF300FB0BDE8F08F5046FAE7E9072B
:100D100001D10AF1010A064400200C9054E60000BB
:100D2000CCCCCC0C754600F035F8AE4605006946D3
:100D3000534620F00700854618B020B5FFF718FB92
:100D4000BDE820404FF000064FF000074FF00008CC
:100D50004FF0000B21F00701AC46ACE8C009ACE84D
:100D6000C009ACE8C009ACE8C0098D467047000076
:100D700010B500F013F8001D10BD00BFE1420000E7
:100D800010B50446AFF300802046BDE81040FFF7E1
:100D9000DABA00000048704740010024004870475C
:100DA0006001002401491820ABBEFEE726000200C6
:100DB0004FF0013C50F8042B51F8043B9A4215D1F6
:100DC000A2EB0C03934313EACC130BD150F8042B82
:100DD00051F8043B9A4209D1A2EB0C03934313EA66
:100DE000CC13E7D04FF00000704700BFD01A01BA13
:100DF000B1FA81F101F0180122FA01F0CB40C1F102
:100E00002001DBB2C0B2C01A2CFA01F3D11A91430F
:100E100011EAC311E6D170477047FEE7704772B61A
:100E2000FEE700002DE9F84F044600F00DFC0090AD
:100E30003CB194F83500022806D08021616500207D
:100E4000E4E00120BDE8F88FC74DC74EC64918350C
:100E500020683036DFF81483DFF814938842DFF817
:100E600014A3DFF814B32ED0A8422CD0B0422AD05D
:100E7000404528D0484526D0504524D0584522D05A
:100E8000BD4A183290421ED0BC4A90421BD0BB4A89
:100E90001832904217D0B94A3032904213D0B74A34
:100EA000483290420FD0B54A603290420BD0B34ADC
:100EB0007832904207D0B14A9032904203D0AF4A84
:100EC000A832904209D1026822F01E020260206816
:100ED000426922F08002426103E0026822F00E02C1
:100EE000026027688F4238464DD0A8424BD0B042AE
:100EF00049D0404547D0484545D0504543D0584556
:100F000041D09D4A183290423DD09C4A90423AD0FE
:100F10009A4A1832904236D0984A3032904232D0B3
:100F2000964A483290422ED0944A603290422AD05B
:100F3000924A7832904226D0904A9032904222D003
:100F40008E4AA83290421ED08D4A90421BD08C4AC5
:100F50001432904217D08A4A2832904213D0884ADD
:100F60003C3290420FD0864A503290420BD0844A95
:100F70006432904207D0824A7832904203D0804A4D
:100F80008C32974204D1206E026822F48072026093
:100F900075492068884228D0A84226D0B04224D083
:100FA000404522D0484520D050451ED058451CD041
:100FB00071491831884218D07049884215D06F495C
:100FC0001831884211D06D49303188420DD06B49BB
:100FD0004831884209D069496031884205D0674963
:100FE0007831884201D065499031016821F00101D2
:100FF00001600EE000F028FB0099401A052808D98E
:10100000202262650321002084F8351084F8340022
:1010100017E73868C007EDD1534A01212068904294
:101020002ED0A8422CD0B0422AD0404528D04845E6
:1010300026D0504524D0584522D04F4B18339842E3
:101040001ED04E4B98421BD04C4B1833984217D0B1
:101050004A4B3033984213D0484B483398420FD014
:10106000464B603398420BD0444B7833984207D0BC
:10107000424B9033984203D0404BA833984208D15A
:1010800094F85C703F23A06D07F01F07BB4083609E
:1010900007E094F85C30A06D03F01F0301FA03F33E
:1010A0004360206890424DD0A8424BD0B04249D016
:1010B000404547D0484545D0504543D0584541D09C
:1010C0002D4A183290423DD02C4A90423AD02B4AB9
:1010D0001832904236D0294A3032904232D0274AD4
:1010E000483290422ED0254A603290422AD0234A7C
:1010F0007832904226D0214A9032904222D01F4A24
:10110000A83290421ED01E4A90421BD01C4A143274
:10111000904217D01A4A2832904213D0184A3C32D3
:1011200090420FD0164A503290420BD0144A64328B
:10113000904207D0124A7832904203D0104A8C3243
:1011400090420BD1D4E919024260E06E30B10268DE
:1011500022F480720260D4E91C024260002084F80C
:10116000351084F834006DE610000240580002404B
:101170007000024088000240A000024010040240BB
:10118000085402582DE9F05F28B190F83510022973
:1011900004D0802141650120BDE8F09F904C904B28
:1011A0000168183C18338E4ADFF83C92A1428D4CFE
:1011B000DFF838E28E4FDFF83CB2DFF83CA28F4D0B
:1011C0008F4E31D091422FD099422DD0A1422BD0B9
:1011D000494529D0714527D0B94225D0DFF810C242
:1011E0000CF1180C61451FD0DFF808C2ACF1600C9F
:1011F000614519D0DFF8FCC1ACF1480C614513D052
:10120000DFF8F0C1ACF1300C61450DD0DFF8E4C17E
:10121000ACF1180C614507D0594505D0514503D0B4
:10122000A94201D0B1422CD1DFF8B4C14FF004087B
:1012300080F83580ACF1180C61451DD091421BD06F
:10124000994219D0A14217D0494515D0714513D004
:10125000B94211D06648183081420DD065486038D7
:10126000814209D063484838814205D0614830380E
:10127000814201D05F481838086820F001000860FA
:10128000ABE0D1F800C02CF00E08DFF854C1C1F873
:101290000080ACF1180C0168614527D0914225D03F
:1012A000994223D0A14221D049451FD071451DD07C
:1012B000B9421BD0DFF838C10CF1180C614515D0CC
:1012C000DFF830C1ACF1600C61450FD0DFF824C10C
:1012D000ACF1480C614509D0DFF818C1ACF1300C15
:1012E000614503D0DFF80CC1ACF1180CD1F800C097
:1012F0002CF0010CC1F800C0DFF8E4804FF0010CC5
:101300000168A8F11808414546D0914244D099425D
:1013100042D0A14240D049453ED071453CD0B9426F
:101320003AD0334A1832914236D0324A603A91422A
:1013300032D0304A483A91422ED02E4A303A914229
:101340002AD02C4A183A914226D0594524D05145EA
:1013500022D0A94220D0B1421ED02A4A91421BD0AD
:10136000284A1432914217D0264A2832914213D08B
:10137000244A3C3291420FD0224A503291420BD043
:10138000204A6432914207D01E4A7832914203D0FB
:101390001C4A8C32914218D1016E0A6822F4807284
:1013A0000A6090F85C20816D02F01F020CFA02F2D4
:1013B0004A60D0E919124A60C16E31B10A6822F45C
:1013C00080720A60D0E91C124A600022016D80F828
:1013D00035C080F8342001B188470020DCE60000E9
:1013E000280002405800024070000240880002407D
:1013F000A00002407004024088040240A0040240A1
:10140000B80402400854025890F8350070470000B4
:101410002DE9F84F03247D4D00234FF001094FF0D3
:10142000B04B4FF00F0AE9E009FA03F73A4076D0E3
:101430000E7906F00306012E01D0022E18D1D0F845
:1014400008C04FEA430ECE6804FA0EF82CEA080CE6
:1014500006FA0EF646EA0C068660D0F804C00E794D
:101460002CEA070CC6F300169E4046EA0C064660BE
:101470000E79F643B6070BD0C6684FEA43088F686B
:1014800004FA08FC26EA0C0607FA08F73743C76097
:101490000E7906F00306022E12D1DE080F694FEA1C
:1014A000437C00EB8606B646366A4FEADC6C0AFAE5
:1014B0000CF807FA0CF726EA08063743CEF8207036
:1014C0000F7906684FEA430807F0030704FA08FC9F
:1014D00007FA08F726EA0C06374307604E6816F449
:1014E000403F1CD04A4E376847F0020737603668E5
:1014F0009F0706F00206009623F0030606F1B046A9
:10150000B6463F0FD6F80864DFF808810AFA07FCF0
:10151000404526EA0C0603D14FF0000C41E06CE098
:10152000DFF8F4C0604502D14FF0010C39E0DFF87C
:10153000ECC0604502D14FF0020C32E0DFF8E0C0B1
:10154000604502D14FF0030C2BE0DFF8D8C06045B6
:1015500002D14FF0040C24E0DFF8CCC0604502D18A
:101560004FF0050C1DE0DFF8C4C0604502D14FF01C
:10157000060C16E0DFF8B8C0604502D14FF0070C4A
:101580000FE0DFF8B0C0604502D14FF0080C08E072
:10159000DFF8A4C0604502D14FF0090C01E04FF024
:1015A0000A0C0CFA07FC4CEA060CCEF808C44F688B
:1015B000DBF80060FF0226EA020600D516435F460C
:1015C000CBF80060D1F804C0DBF804605FEA8C2C33
:1015D00026EA020600D516437E606E684F6826EA4A
:1015E0000206BF0300D516436E602E684F6826EAD8
:1015F0000206FF0300D516432E605B1C0A6832FA10
:1016000003F67FF411AFBDE8F88F000080000058AA
:10161000F44402580000025800040258000802581E
:10162000000C02580010025800140258001802580A
:10163000001C02580020025800240258014800688B
:10164000000C70470010005C014880687047000083
:101650000400002430B590F84120202A24D190F8CD
:101660004020012A20D0012380F84030242280F835
:101670004120202300240268156825F0010515602B
:101680000268156825F480551560026815680D43D9
:10169000156001680A6842F001020A6080F8413072
:1016A00080F84040002030BD022030BD30B590F8B9
:1016B0004120202A22D190F84020012A1ED0012367
:1016C00080F84030242280F8412020240025026840
:1016D000136823F0010313600268136823F4706336
:1016E00043EA0121116001680A6842F001020A60C0
:1016F00080F8414080F84050002030BD022030BDCD
:101700007047704730B403689A691968D243D405AA
:1017100009D4CC43240606D4456C4FF4807445F0BC
:1017200001054564DC6153050AD4CB431B0607D48D
:10173000446C4FF4806344F0080444640468E3613B
:1017400092050AD4C943090607D4426C4FF40071CC
:1017500042F0020242640268D161416C11F00B0F49
:1017600002D030BC02F0BCB930BC70470268436B99
:1017700091691268002B00D018477047704700002D
:1017800070B5040004D094F84100002510B106E0C3
:10179000012070BD204684F8405000F0F9F8242064
:1017A00084F841002068016821F001010160D4E95A
:1017B000001020F0706008612068816821F4004109
:1017C0008160E06821680128A06830D040F40440BE
:1017D0008860E0680228206841682BD021F400610D
:1017E000416020682021154A436813434360206804
:1017F000C26822F40042C26054F8106B0DCC104352
:1018000040EA0320F06054F81C3CD4E90002104385
:10181000186054F81C0D026842F001020260656411
:1018200084F84110256384F84250002070BD40F4D4
:101830000040CDE741F40061D2E7000000800002E3
:10184000704700002DE9FF4F81B0044690F8410039
:1018500099469046DDF838B020287BD194F84000B6
:10186000012877D0012084F84000FFF7EDFE012227
:10187000064619230090D103204602F096FC00286A
:1018800053D1414921220025C4F82480102084F836
:101890004120FF2784F842006564A4F82A90608DF7
:1018A0004FF080794FF0007A6563FF2802D94B46EC
:1018B000278505E0608D534620850004000C10D07C
:1018C000226898F800009062606A401C6062608D37
:1018D000401E6085208D401E2085401C0091C2B2B4
:1018E00001E0002200910299204602F031FC13E051
:1018F00002F0C5FCC8B9606A216800788862606A35
:10190000401C6062608D401E6085208D401E80B24C
:101910002085618D01B160B1608D32465946002845
:101920002046E5D102F07FFCE0B1012005B0BDE822
:10193000F08F00225B4680212046009602F035FCA5
:101940000028F2D1608DFF2805D927853A464B46FD
:101950000095C8E716E0608D53462085009594F801
:101960002820C0E721682020084AC86121684B6808
:1019700013404B6084F8410084F84250002084F802
:101980004050D3E70220D1E70020008000E800FEAD
:1019900010B5B6B00446142130A8FEF712FFC021DE
:1019A0006846FEF70EFF2049206888423AD10020A1
:1019B000219008210446CDE90010684600F0AEFAF7
:1019C00008B1FFF72CFA1948016841F002010160E3
:1019D000006830AB122100F002003590C0200422D4
:1019E00083E81300124830A9CDE93342FFF710FD18
:1019F0000E480830016841F40011016000680022BF
:101A0000114600F4001035901F2000F0D5F81F207B
:101A100000F0C4F800222020114600F0CDF820206C
:101A200000F0BCF836B010BD00540040E04402584D
:101A300000040258704770470248816802781144D8
:101A40008160704704000024032010B500F0D4F832
:101A500001F0AEF80F4A104914681368C4F303226A
:101A600003F00F038A5CC95C02F01F0201F01F0142
:101A7000D0400A4A20FA01F11160094908600F209C
:101A800000F010F808B1012010BD00F079F8002036
:101A900010BD000018440258BA5000081400002479
:101AA0001000002470B50D4D04462878A0B14FF405
:101AB0007A71B1FBF0F00A490968B1FBF0F001F06E
:101AC000D4FB48B9102C07D200222146501E00F04A
:101AD00073F800206C6070BD012070BD040000240C
:101AE00010000024154BF0B5083B427813491A60EA
:101AF0000B680A1F23F001030B6043681360057B2A
:101B0000C67A827A437B2D07847B45EA0665C77BCC
:101B100090F809C0067A90F800E045EAC24040EA31
:101B2000834040EA444040EA074040EA0C2040EA53
:101B3000460040EA0E000860F0BD0000A0ED00E0A5
:101B4000BFF35F8F044800210368034A23F4803306
:101B5000036070321160704724ED00E0074A40F0E6
:101B60000100064970321060086840F48030086057
:101B7000BFF34F8FBFF36F8F7047000024ED00E07D
:101B8000054808B5016841F002010160006800F0F5
:101B90000200009008BD0000F4440258002809DB50
:101BA000410900F01F028900012001F1E02190406D
:101BB000C1F80001704700000E4BF0B41B680D46E1
:101BC000C3F30223C3F10706042E00D90426191D0E
:101BD000072901D2002300E0DB1E012404FA06F1EC
:101BE0009C40491E2940641E994014402143F0BC8A
:101BF00003F0B9B90CED00E0064900F0070210B59A
:101C00004FF6FF040868044B204040EA02201843C6
:101C1000086010BD0CED00E00000FA05134970B536
:101C20000A68D243520705D5096801F007018142CD
:101C300013D118E00A6822F0070202430A60FFF796
:101C400003FD0A4D4FF47A760446083D07E000BFD5
:101C5000FFF7FAFC001BB04201D9012070BD2868D3
:101C6000C0438004F4D4002070BD00000C4802582A
:101C700010B500F057FF05490968054AC1F3021184
:101C8000515C01F01F01C84010BD00002044025803
:101C9000BA500008494930B5484C0B1D0A68143445
:101CA00009681D68246802F00303C5F30012C1F33C
:101CB0000531C4F3CC04002914FB02F200EE102A13
:101CC000F8EE400A75D03F4A9FED3D1AB7EE000A84
:101CD0006BB1DFED3D1A012B01D0022B64D002EE77
:101CE000101A1168F8EE422A81EEA22A21E0334C44
:101CF000283C23689B0612D5344B246801EE901AC9
:101D00001168C4F3C104F8EE612AE34001EE903A91
:101D1000C1F30801F8EE611A81EEA22A0BE001EE90
:101D2000901ADFED2B2A00BFF8EE611A116882EEDF
:101D3000A12AC1F3080101EE901A1168F8EE611AA8
:101D400040EE811A71EE800A62EE200AC1F346214C
:101D500001EE101AB8EE411A31EE001AC0EE811AE7
:101D6000BCEEE11A80ED001A1168C1F3064101EEE4
:101D7000101AB8EE411A31EE001AC0EE811ABCEE0C
:101D8000E11A80ED011A1168C1F3066101EE101A23
:101D9000B8EE411A31EE000A80EE801ABCEEC10A9C
:101DA00080ED020A30BD04E001EE901ADFED092A51
:101DB000BAE70021016041608160F3E728440258DE
:101DC00000000039384402580024744A0090D003BF
:101DD0000024744C0024F44A494930B5484C0B1D8A
:101DE0000A681C3409681D68246802F00303C5F3FF
:101DF0000022C1F30551C4F3CC04002914FB02F204
:101E000000EE102AF8EE400A75D03F4A9FED3D1AC9
:101E1000B7EE000A6BB1DFED3D1A012B01D0022BAA
:101E200064D002EE101A1168F8EE422A81EEA22A5E
:101E300021E0334C283C23689B0612D5344B2468A0
:101E400001EE901A1168C4F3C104F8EE612AE34070
:101E500001EE903AC1F30801F8EE611A81EEA22A70
:101E60000BE001EE901ADFED2B2A00BFF8EE611AAD
:101E7000116882EEA12AC1F3080101EE901A1168DF
:101E8000F8EE611A40EE811A71EE800A62EE200AC5
:101E9000C1F3462101EE101AB8EE411A31EE001AD4
:101EA000C0EE811ABCEEE11A80ED001A1168C1F390
:101EB000064101EE101AB8EE411A31EE001AC0EEDA
:101EC000811ABCEEE11A80ED011A1168C1F30661B6
:101ED00001EE101AB8EE411A31EE000A80EE801AB7
:101EE000BCEEC10A80ED020A30BD04E001EE901A9A
:101EF000DFED092ABAE70021016041608160F3E764
:101F00002844025800000039404402580024744A12
:101F10000090D0030024744C0024F44A2DE9FE4FB5
:101F20000546DFF8E48350F8081B0024F64FC94348
:101F3000019005F12800264608F1240800900801C8
:101F40001DD4A86E50B1B0F5801F0CD0B0F5001FA5
:101F50000ED0B0F5401F1ED001240FE0386840F4C9
:101F60000030386017E00198022102F085FA03E0A2
:101F70000098022102F010FB04000CD026462888AD
:101F8000C043C00523D4A86D05281ED2DFE800F0A9
:101F90000C11161B1B00AA6ED8F8001021F440117A
:101FA0001143C8F80010EAE7386840F400303860A0
:101FB00009E00198002102F05FFA03E00098002197
:101FC00002F0EAFA044674B100E0012426462888AB
:101FD000C043800528D4E86D80281ED00CDC90B169
:101FE00040280ED114E0AA6DD8F8001021F00701A6
:101FF0001143C8F80010EAE7C02813D0B0F5807F7D
:1020000010D001240FE0386840F40030386009E057
:102010000198002102F030FA03E00098002102F05C
:10202000BBFA04469CB126462888DFF8DC92C04300
:1020300009F12C0940052CD4D5F8A800B0F5800F83
:1020400020D00DDCA0B1B0F5001F0FD115E0EA6D76
:10205000D8F8001021F4E0711143C8F80010E3E74C
:10206000B0F5C00F13D0B0F5000F10D001240FE071
:10207000386840F40030386009E00198002102F02F
:10208000FBF903E00098002102F086FA04467CB1D7
:1020900026462888C04300052DD4D5F8AC00B0F101
:1020A000007F21D00EDCA8B1B0F1807F10D116E006
:1020B000D5F8A820D9F8001021F460011143C9F81F
:1020C0000010E6E7B0F1407F13D0B0F1806F10D080
:1020D00001240FE0386840F40030386009E00198CE
:1020E000002102F0C9F903E00098002102F054FA3F
:1020F000044674B126462868C04380011FD4E86CAA
:10210000D8B110280FD0202812D0302815D00124A3
:1021100014E0D5F8AC20D9F8001021F0E0611143AB
:10212000C9F80010E7E7386840F40030386004E090
:102130000198022102F0A0F9044674B126462888CD
:10214000C043C0042BD4286EB0F5005F20D00DDC56
:10215000A0B1B0F5805F0FD115E06B48EA6C20307C
:10216000016821F0300111430160E8E7B0F5405FFC
:1021700013D0B0F5804F10D001240FE0386840F440
:102180000030386009E00198002102F075F903E0A1
:102190000098002102F000FA04468CB126462888F7
:1021A000C043800429D4686EB0F5403F23D010DCD2
:1021B00008B3B0F5803F14D0B0F5003F0FD115E063
:1021C0002A6ED8F8001021F4E0411143C8F800103D
:1021D000E5E7B0F5802F0ED0B0F5A02F0BD001248D
:1021E0000AE00198012102F047F903E0009801217B
:1021F00002F0D2F9044694B126462888C043400430
:102200002AD4D5F8B000B0F1405F23D010DC08B379
:10221000B0F1805F14D0B0F1005F0FD115E06A6EAD
:10222000D8F8001021F4E0211143C8F80010E4E7C9
:10223000B0F1804F0ED0B0F1A04F0BD001240AE0D6
:102240000198012102F018F903E00098012102F041
:10225000A3F9044674B126462888C04300041FD45D
:10226000286FD8B1B0F1805F0ED0B0F1005F10D010
:10227000012414E0D5F8B020D9F8001021F0E04195
:102280001143C9F80010E7E7386840F400303860BF
:1022900004E00198012102F0EFF8044674B12646EB
:1022A0002868C043C0011ED4A86CD0B101280ED04C
:1022B000022811D0032814D0012413E02A6FD8F883
:1022C000001021F040511143C8F80010E8E73868C9
:1022D00040F40030386004E00198022102F0CCF8AC
:1022E0000446ACB126462868DFF81CB0C043ABF109
:1022F0001C0B400252D40548016841F48071016012
:10230000FFF7A2F9824611E02C4402580048025817
:10231000FA48AA6C016821F0030111430160E2E769
:10232000FFF792F9A0EB0A00642835D8F44800685A
:10233000C005F5D58CBBDFF8C4A3B5F8B4100AF11D
:10234000240ADAF8000001F4407100F44070884279
:1023500011D0DAF80010DAF8002021F4407142F4CC
:102360008032CAF80020DAF8002022F48032CAF85D
:102370000020CAF80010D5F8B400B0F5807F1AD15B
:10238000FFF762F9029012E0FFF75EF90299411A35
:1023900041F2883081420AD9032426462878DFF8A2
:1023A0005CA3C0430AF1080AC00721D03CE0DAF878
:1023B00000008007E8D5D5F8B410C1F30120032848
:1023C00058460DD0016821F47C510160B5F8B42065
:1023D000DAF80010C2F30B021143CAF80010DDE76F
:1023E000C84A036802EA111223F47C511143ECE756
:1023F000E86F182816D005DCA0B1082808D01028EE
:1024000004D10AE020280DD028280BD001240AE0AE
:102410000198012102F030F803E00098012102F058
:10242000BBF8044664B126462878C04380071ED412
:10243000A86F062819D2DFE800F0160C1116161640
:10244000EA6FDAF8001021F038011143CAF80010E1
:10245000EAE70198012102F00FF803E0009801215A
:1024600002F09AF804467CB100E001242646287860
:10247000C04340071FD4D5F89400062819D2DFE8DE
:1024800000F0160C11161616AA6FDAF8001021F0DB
:1024900007011143CAF80010E9E70198012101F092
:1024A000EBFF03E00098012102F076F80446A4B1A6
:1024B00000E0012426462878C04380062BD4D5F8B6
:1024C0009000B0F1405F24D011DC10B3B0F1805F18
:1024D00015D0B0F1005F10D116E0D5F89420D9F8EE
:1024E000001021F007011143C9F80010E3E7B0F133
:1024F000804F0ED0B0F1A04F0BD001240AE001981C
:10250000002101F0B9FF03E00098022102F044F835
:10251000044694B126462878C04340062BD4D5F80B
:102520009C00B0F5406F24D011DC10B3B0F5806F83
:1025300015D0B0F5006F10D116E0D5F89020DAF87C
:10254000001021F0E0411143CAF80010E3E7B0F5B4
:10255000805F0ED0B0F5A05F0BD001240AE0019897
:10256000002101F089FF03E00098022102F014F835
:10257000044694B126462878C04300062BD4D5F8EB
:10258000A000B0F5C04F24D011DC10B3B0F5005F4F
:1025900015D0B0F5804F10D116E0D5F89C20D9F8B1
:1025A000001021F4E0511143C9F80010E3E7B0F541
:1025B000004F0ED0B0F5204F0BD001240AE0019857
:1025C000002101F059FF03E00098022101F0E4FF2F
:1025D000044654B126462878C04300071ED4D5F8D7
:1025E0008400B0F5805F0AD00FE0D5F8A020D9F8BC
:1025F000001021F460411143C9F80010EBE7009886
:10260000022101F0C9FF00B10126D5F88420DAF8D3
:10261000001021F440511143CAF800102878C0433B
:10262000C00613D4D5F89800B0F5807F05D1009886
:10263000022101F0B1FF00B10126D5F89820D9F8A8
:10264000001021F440711143C9F800102868C043FC
:10265000000316D4D5F8A40038B1B0F5803F09D0F6
:10266000B0F5003F0BD001240AE00198002101F0F1
:1026700003FF03E00098022101F08EFF04468CB1B5
:1026800026462868C043400322D4D5F88800B0F518
:10269000801F11D0B0F5001F13D0B0F5401F15D02A
:1026A000012414E0D5F8A420D9F8001021F4403119
:1026B0001143C9F80010E4E7386840F4003038608E
:1026C00004E00098012101F067FF04465CB1264652
:1026D0002868C043C00323D4286DA8B1B0F5803F5B
:1026E00017D001241BE0D5F88820DAF8001021F477
:1026F00040111143CAF80010EAE700004C440258A8
:1027000000480258CFFFFF00386840F400303860BE
:1027100004E00198022101F0AFFE0446E4B1264630
:102720002868C043800005D40098022101F034FFDE
:1027300000B101262868C04380031BD4D5F880006F
:10274000B0B1B0F5807F0FD0B0F5007F10D0B0F5FC
:10275000407F0DD001240CE05A482A6D016821F415
:10276000803111430160DBE7386840F400303860A5
:10277000ECB326462868C043C00207D46A6FD8F875
:10278000001021F000411143C8F800102868C04330
:10279000C00008D4D5F8B820DBF8001021F480413F
:1027A0001143CBF800102868C043800207D4EA6EBA
:1027B000D8F8001021F080711143C8F80010286883
:1027C000C04340000CD4DBF8001021F40041CBF8EA
:1027D0000010DBF80010D5F8BC201143CBF8001036
:1027E0002868C04308D437486A6D016800E018E0E3
:1027F00021F04051114301602868C043000208D411
:10280000D5F88C20DAF8001021F440011143CAF801
:10281000001028790024C04300F0010020430AD0B2
:102820000FE0D5F88020DAF8001021F44071114350
:10283000CAF800109EE70198002101F01DFE00B1CA
:1028400006462879C04300F00200204305D10198D4
:10285000012101F011FE00B106462879C04300F0C5
:102860000400204305D10198022101F005FE00B1CA
:1028700006462879C04300F00800204305D100989F
:10288000002101F089FE00B106462879C04300F01E
:102890001000204305D10098012101F07DFE00B118
:1028A00006462879C04300F02000044304D1009874
:1028B000022101F071FE00B916B10120BDE8FE8FC2
:1028C0000020FBE74C4402582DE9F05F04000F465E
:1028D0007ED0DFF83882D8F8000000F00F00B84250
:1028E0000CD2D8F8001021F00F013943C8F80010BD
:1028F000D8F8000000F00F00B84269D12078844D6C
:1029000040070AD52069296801F07001884204D97E
:10291000296821F070010143296020787C4E361D22
:1029200000070AD56069316801F07001884204D956
:10293000316821F07001014331602078C0060AD56A
:10294000A069316801F4E061884204D9316821F45A
:10295000E061014331602078DFF8B4B180060BF10B
:10296000080B0CD5E1695846DBF8002002F0700234
:10297000914204D9026822F070020A430260207872
:1029800080070AD5E068296801F00F01884204D960
:10299000296821F00F01014329602078C0073ED04B
:1029A0005B49A2682868183920F4706010432860D9
:1029B0006068022818D0032819D00968012819D0A6
:1029C000490700294ADADFF848A1AAF1080A00E01D
:1029D00044E0DAF8002022F007020243CAF800209F
:1029E000FEF732FE814612E009688903E9E70968CB
:1029F0008901E6E7C905E4E7FEF726FEA0EB090139
:102A000041F28830814202D90320BDE8F09F61681D
:102A1000DAF8000000F03800B0EBC10FECD12078FC
:102A200080070AD5E068296801F00F01884204D2C6
:102A3000296821F00F0101432960D8F800104046B1
:102A400001F00F01B9420BD9016821F00F013943A0
:102A50000160006800F00F00B84201D00120D4E707
:102A6000207840070AD52069296801F07001884262
:102A700004D2296821F07001014329602078000701
:102A80000AD56069316801F07001884204D231686A
:102A900021F07001014331602078C0060AD5A06999
:102AA000316801F4E061884204D2316821F4E061C8
:102AB00001433160207880060CD5E1695846DBF887
:102AC000002002F07002914204D2026822F07002EB
:102AD0000A43026000F06CF80E492A682B68C2F3C2
:102AE000032203F00F038A5CC95C02F01F0201F0AD
:102AF0001F01D040084A20FA01F11160074908601F
:102B000007480068BDE8F05FFEF7CCBF0020005228
:102B100018440258BA500008140000241000002481
:102B20000800002430B500F043F80B4A0B490C4B69
:102B300015681468C5F3032204F00F048A5C095D6C
:102B400002F01F0201F01F01D040064A20FA01F1F5
:102B500019601060084630BD18440258BA50000889
:102B6000140000241000002400B5FFF7DBFF054926
:102B70000968054AC1F30211515C01F01F01C84008
:102B800000BD00001C440258BA50000800B5FFF711
:102B9000C9FF05490968054AC1F30221515C01F0EA
:102BA0001F01C84000BD00001C440258BA50000874
:102BB000454970B545480968434B103B11F0380250
:102BC00008D00111082A03D0102A0BD0182A0BD0E4
:102BD000084670BD19688906FBD51968C1F3C101A3
:102BE000C84070BD3A4870BD3749374D18310C1D8B
:102BF00024350A68096826682D6802F0030406F087
:102C00000102C1F30511C5F3CC0515FB02F200EE7C
:102C1000102AB8EE400AE9B32F4ADFED2E0AB7EECC
:102C2000001A6CB1DFED2D1A012C01D0022C43D01B
:102C300002EE101A1068F8EE422A81EEA22A1EE077
:102C40001C68A40611D51B6801EE901A1168C3F325
:102C5000C103F8EE612AD84001EE900AC1F30800E2
:102C6000F8EE611A81EEA22A0BE001EE901ADFED78
:102C70001C2A00BFF8EE611A106882EEA12AC0F388
:102C8000080001EE900AF8EE611A40EE201A31EECB
:102C9000810A00E015E022EE000A1068C0F3462029
:102CA000401C00EE900AF8EE600A80EE201ABCEE9E
:102CB000C10A10EE100A70BD01EE901ADFED092A6C
:102CC000D8E7002070BD0000104402580090D003E7
:102CD00000127A0000000039304402580024744A7F
:102CE0000024744C0024F44A2DE9F05F04007DD0E8
:102CF000FF4F2078FE4D1837DFF8F493103DC007E2
:102D000048D0D9F80000396800F03800102815D0F4
:102D1000182803D101F0030002280FD06068B0F535
:102D2000803F12D010B1B0F5A02F18D0286820F441
:102D300080302860286820F4802009E0286880031B
:102D400028D560680028D2D024E0286840F480307C
:102D50002860606888B1FEF777FC064609E02868BD
:102D600040F480202860F0E7FEF76EFC801B6428AA
:102D70006FD828688003F7D50CE0FEF765FC06469F
:102D800005E000BFFEF760FC801B6428F0D82868CF
:102D90008003F7D4207841F20308D54E0C3E80071B
:102DA00069D5D9F80000396810F038000ED018281D
:102DB00001D188070AD0E06890B3296821F0190191
:102DC00001432960FEF740FC824631E02868400755
:102DD00002D5E06800288AD0E168286820F0190050
:102DE00008432860FEF730FC824607E0DFE000BFC2
:102DF000FEF72AFCA0EB0A000228B9D82868400791
:102E0000F6D500BFFEF71AFC40451BD820694028C4
:102E100012D0316821F47C3141EA003030602AE080
:102E200018E000BFFEF710FCA0EB0A0002289FD8B4
:102E300028684007F6D5E5E7306820F47C3040F498
:102E40000030EBE7207C316821F0FE4141EA006070
:102E5000E4E70DE1286820F001002860FEF7F4FBAC
:102E6000824605E0FEF7F0FBA0EB0A0002288DD8B1
:102E700028684007F6D42078C0065DD5D9F8000050
:102E8000DFF86CB2396800F03800ABF1040B0828A9
:102E900010D0182803D101F0030001280AD0E069FE
:102EA0000028286838D040F080002860FEF7CCFB6E
:102EB000824623E02868C00523D5E069802876D1C2
:102EC0001FE0206A202821D0316821F0F84141EA32
:102ED0008060306030E000BF94F82010DBF8002004
:102EE00022F07C5242EA0161CBF8001024E000BFDE
:102EF000FEF7AAFBA0EB0A00022898D82868C005B4
:102F0000F6D5FEF79BFB4045E6D8DAE7306820F0BF
:102F1000F84040F08040DCE720F080002860FEF7B9
:102F200093FB064605E000BFFEF78EFB801B0228E0
:102F30009DD82868C005F7D42078000729D56C48AB
:102F40006169643000298046016811D041F00101B7
:102F50000160FEF779FB064605E000BFFEF774FB53
:102F6000801B0228C9D8D8F800008007F6D510E0E9
:102F700021F001010160FEF767FB064605E000BF96
:102F8000FEF762FB801B022872D8D8F80000800789
:102F9000F6D42078800623D5A0690028286810D0B0
:102FA00040F480502860FEF74FFB064605E036E10E
:102FB000FEF74AFB801B02285AD828688004F7D500
:102FC0000EE020F480502860FEF73EFB064604E049
:102FD000FEF73AFB801B02284AD828688004F7D401
:102FE000207840074FD5DFF80C81D8F8001041F465
:102FF0008071C8F80010FEF727FB064605E000BF09
:10300000FEF722FB801B642832D8D8F80000C005E8
:10301000F6D5374EA068603601280AD008B10528D9
:1030200013D0306820F001003060306820F00400D8
:1030300002E0306840F001003060A06841F2883A58
:1030400090B1FEF701FB80460AE0306840F00400D2
:103050003060EEE7FEF7F8FAA0EB0801514507D81B
:1030600030688007F6D50EE0FEF7EEFA804607E0FE
:1030700084E000BFFEF7E8FAA0EB080151457DD8D7
:1030800030688007F6D4606AB0B3DFF86480D9F89E
:10309000001008F120084FF6F87B08F10409C1F38D
:1030A000C2010329A8F1040A69D00228286820F087
:1030B0008070286003D0FEF7C7FA044684E0FEF76C
:1030C000C3FA064605E000BFFEF7BEFA801B0228E1
:1030D00077D828688001F7D4E26A40F2F331386883
:1030E00054F8283F884340EA02101843386004E04F
:1030F0001044025800480258B5E0217B434622891B
:103100004FF4FE0C208A4FF0FE474902267D521EE6
:10311000401EA1F50071C2F308088AB2761E0CEABF
:10312000004042EA08020243504607EA06610A43A9
:103130001A60DAF8002022F00102CAF80020D9F85B
:103140000020266A22EA0B0242EAC602C9F80020E1
:10315000DAF80010A26921F00C011143CAF800103E
:103160000168E26921F0020111430160016841F444
:1031700080310160016841F4003101E021E027E085
:103180000160016841F480210160016841F00101A2
:103190000160286840F080702860FEF755FA044608
:1031A00005E000BFFEF750FA001B022809D8286886
:1031B0008001F7D557E000BFFEF746FA001B022852
:1031C00002D90320BDE8F09F28688001F4D44AE0CA
:1031D00039680128D8F8000021D0A26A01F0030361
:1031E00093421CD1E26AC1F305118A4217D1216BC7
:1031F000C0F30802491E8A4211D1616BC0F3462216
:10320000491E91420BD1A16BC0F30642491E914267
:1032100005D1E16BC0F30660491E814201D0012057
:10322000D0E7A16C4E46D9F80000C0F3CC00814233
:1032300019D0DAF80000554620F00100CAF8000065
:10324000FEF702FA4FEA0007FEF7FEF9B842FBD09C
:10325000A26C306820EA0B0040EAC20030602868A7
:1032600040F0010028600020ACE7401EB0F1807FF4
:1032700010B501D3012010BD4FF0E02460610F2193
:10328000601701F070FE0020A0610721216110BDD0
:1032900030B590F88410012918D0012280F88420DC
:1032A0002421C0F888100022202401680B680D68D2
:1032B00023F0005325F001050D60426601680B60A4
:1032C000C0F8884080F88420104630BD022030BD10
:1032D0007047704770B5044690F8840001281DD0EF
:1032E000012284F884202420C4F88800206805681E
:1032F000026822F0010202602068826822F06062A7
:103300000A438260204601F0F7FA2268202100205B
:103310001560C4F8881084F8840070BD022070BD68
:1033200070B5044690F8840001281DD0012284F86D
:1033300084202420C4F8880020680568026822F0F0
:10334000010202602068826822F060420A438260C3
:10335000204601F0D1FA2268202100201560C4F82F
:10336000881084F8840070BD022070BD70477047DB
:10337000704700002DE9F04107680025044640F63B
:103380000F030226F8693968BA6818420AD1830621
:103390007ED501F0200302F0805C53EA0C0377D065
:1033A000616F74E1CF4BDFF840C3134001EA0C0CAE
:1033B00053EA0C0C6CD05FEAC07C0CD05FEAC15CB5
:1033C00009D54FF0010CC7F820C0D4F8907047F031
:1033D0000107C4F89070870709D5D70707D0276879
:1033E0003E62D4F8906046F00406C4F89060460748
:1033F0000AD5D60708D0276804263E62D4F8906024
:1034000046F00206C4F8906006070CD501F02006CD
:103410001E4308D0266808233362D4F8903043F066
:103420000803C4F8903003050BD54B0109D5266875
:103430004FF400633362D4F8903043F02003C4F8B3
:103440009030D4F89030002B3DD0800609D501F0A3
:10345000200002F08051084303D0616F09B120467B
:1034600088472168D4F890008968490602D410F092
:10347000280F2AD0204601F025FB206880684006EE
:103480001ED52068083050E8001F21F0400100E000
:1034900021E040E80012002AF3D1D4F8800078B18E
:1034A00092490165D4F88000FDF76CFE00280AD02F
:1034B000D4F88000016D00E02046BDE8F0410847E7
:1034C0002046FFF755FFBDE8F0812046FFF750FF8B
:1034D000C4F89050F7E7D4F86CC02023BCF1010F7A
:1034E0007ED15FEAC06C7BD55FEAC16C78D51020D5
:1034F000386220688068400673D5D4F880107C4A12
:103500000868904234D07A4A1832904230D0784AD3
:10351000303290422CD0764A4832904228D0744AB9
:103520006032904224D0724A7832904220D0704A61
:10353000903290421CD06E4AA832904218D06D4A08
:10354000904215D06B4A1832904211D0694A3032FD
:1035500090420DD0674A4832904209D0654A6032A5
:10356000904205D0634A7832904201D0614A90324D
:1035700040680004000CA6D0B4F85C208242A2D9B6
:10358000A4F85E00C869B0F5807F2FD0216851E8AB
:10359000000F20F4807041E80002002AF6D1206874
:1035A000083050E8001F21F0010140E80012002A15
:1035B000F5D12068083050E8001F21F0400140E8B4
:1035C0000012002AF5D1C4F88C30E566216851E874
:1035D000000F20F0100041E80002002AF6D101E0BF
:1035E00040E00BE0D4F88000FDF71CFC2667B4F83F
:1035F0005C00B4F85E10401A81B22FE0B4F85C00B1
:10360000B4F85E10B4F85E20401A81B2002AB2D03D
:103610000029B0D0226852E8000F20F4907042E8F0
:103620000007002FF6D1344F206800F1080050E861
:10363000002F02EA070240E8002CBCF1000FF3D192
:10364000C4F88C30E5666567206850E8002F22F0EA
:10365000100240E80023002BF6D126672046FFF732
:1036600037FE30E7C60209D5560207D54FF4801061
:1036700038622046BDE8F041FFF779BE06060AD55C
:1036800001F0800602F40002164304D0A16F002965
:103690007FF412AF17E7420611D54A060FD5204630
:1036A000026852E8001F21F0400142E80014002C9B
:1036B000F6D1C0F88830856700F06EF903E70202A2
:1036C00006D54A0004D52046BDE8F041FFF74EBEBE
:1036D000C001C6D50029C4DA2046BDE8F041FFF795
:1036E000F8BD00000100001020010004AF4A0008EE
:1036F0001000024010040240FEFFFFEF10B504006E
:1037000003D0D4F8880010B107E0012010BD0020DC
:1037100084F88400204600F027F82420C4F88800AC
:103720002068016821F001010160A06A10B1204603
:1037300001F004F9204601F0EFF90128E6D02068F5
:10374000416821F4904141602068816821F02A019C
:1037500081602068016841F0010101602046BDE8F8
:10376000104001F04FB9000010B5B6B00446142166
:1037700030A8FDF726F8C0216846FDF722F81D495C
:103780002068884233D100201F9001210446CDE9F2
:1037900000106846FEF7C2FB08B1FDF740FB164873
:1037A000016841F010010160006800F010003590E0
:1037B00011481038016841F002010160006830AB27
:1037C000022100F0020035904FF44040042283E8CB
:1037D00013000A4830A9CDE93342FDF719FE002253
:1037E00001212520FEF7E8F92520FEF7D7F936B0AC
:1037F00010BD000000100140F044025800040258BF
:103800002DE9F84F0446D0F88C009B4616460D462D
:10381000202802D00220BDE8F88FC5B1BEB1002734
:10382000C4F890702220C4F88C00E7662034FDF7BD
:103830000BFF824654F8180CA6874FF48053E68796
:10384000FF21203C984207D1226912B119E00120E2
:10385000E1E740F2FF1114E04FF07F0278B1B0F1E0
:10386000805F11D0A4F860709842B4F860704FF097
:10387000200801D1206970B12E4600250CE0266990
:1038800036B9A4F86010EFE7216909B13F21F8E7E4
:10389000A4F86020E8E7002607F0FF09B4F85E000E
:1038A000F0B10022534620212046CDF800B001F0AF
:1038B00009FB18B1C4F88C800320ACE72068406A8B
:1038C00056B100EA090006F8010B00BFB4F85E002B
:1038D000401EA4F85E00E1E7384025F8020BF5E74A
:1038E000C4F88C80002096E72DE9F8430446D0F810
:1038F0008800984616460D46202802D00220BDE8D2
:10390000F883A5B19EB10021C4F890102120C4F81D
:1039100088001834FDF798FE814654F8100CA687ED
:10392000E6872027183CB0F5805F02D003E0012035
:10393000E5E7206910B12E46002510E000260EE0D4
:103940008021204601F0BEFAC0B9DEB116F8010BA5
:1039500021688862B4F85600401EA4F85600B4F8F6
:1039600056004B464FF00002CDF800800028E7D10A
:103970004FF04001204601F0A5FA48B1C4F8887024
:103980000320BCE735F8020B2168C0F30800E0E72C
:10399000C4F888700020B2E77047FEE70148FDF7E1
:1039A000B1BE0000180000240148FDF7DFBE000092
:1039B00018000024806B0021826B02B11165C26B7C
:1039C00002B1116500F0DCBBCA074FF028034FF0CD
:1039D000000210B506D090F84140422233EA0404B8
:1039E00000D0F2228C0707D590F8414042F0440203
:1039F000A34301D042F0B0020B0401D542F0B8025B
:103A0000102904D0202905D0402906D007E042F033
:103A1000900204E042F0200201E042F0400200681F
:103A200001689143016010BD01688A69D243920721
:103A300001D400228A6200688169C943C90703D0A2
:103A4000816941F00101816170472DE9F047044629
:103A500090F841002822002508218243206804D0E4
:103A6000C16184F84050BDE8F087876986694FF0EE
:103A7000FE088268D0F80CC04FF40049E36808EAF9
:103A800016460CF0FE08022BC7F30047C2F30902EA
:103A900007D049462046FFF797FF324684F840504A
:103AA00010E0062306F0060603EAD2139E420ED16A
:103AB000A36C5B1CA364A36C022BD4D1A564C1616D
:103AC00084F8405039462046FDF71BFECBE74946B7
:103AD0002046FFF779FF424684F84050F2E70000A5
:103AE00070B5444A044690F84100002584F84250DD
:103AF000E2626585626C282842EA0102626433D082
:103B0000292831D02A282FD048F203012046FFF778
:103B10005BFF2046FFF788FF94F84100602813D030
:103B2000202184F8411020688269D24392060BD488
:103B30008269D243D20605D41022C261606C40F083
:103B4000040060642068C1616563A16B206B2A4E2C
:103B500019B1112812D0212810D0E16BF1B312282D
:103B600024D0222822D03EE003212046FFF72CFF5C
:103B700022492820616384F84100E6E72068016853
:103B8000490403D5016821F480410160A06BFDF771
:103B90003BFC012827D0A06B066584F84050A06B41
:103BA000FDF7F0FA002823D0A06B16E0206801682A
:103BB000090403D5016821F400410160E06BFDF7C1
:103BC00023FC01280FD0E06B066584F84050E06BC1
:103BD000FDF7D8FA00280BD0E06B00E003E0016DA0
:103BE000BDE8704008472046BDE8704000F0C8BA04
:103BF00070BD00000000FFFFB53900083940000823
:103C000070B50446164AC843002541074FF020000E
:103C1000E262256384F8410084F84250656311D460
:103C20002068616A406A0870606A401C6062208D8A
:103C300040B1618D401E2085491E6185606C40F059
:103C40000400606448F203012046FFF7BDFE2168CE
:103C50001020C861204684F84050FDF7F1FD70BD8A
:103C60000000FFFF2DE9F05F0D46016820270446A4
:103C7000D1F80080C66A90F84100CF61212808D0B1
:103C8000292806D022280BD02A2809D028280ED08F
:103C900014E048F201012046FFF796FE21200CE0D7
:103CA00048F202012046FFF78FFE222005E048F28D
:103CB00003012046FFF788FE002020632068734937
:103CC000426842F400424260206842680A40426012
:103CD0002046FFF7A9FE6FEA08016D4A6D4BDFF839
:103CE000B8C14804DFF8B491DFF8B4A1DFF8B4B18B
:103CF000DFF8B4E10BD42068D0F8008028F48048C5
:103D0000C0F80080A06B0CE04068608537E00804D4
:103D100035D42068D0F8008028F40048C0F800802E
:103D2000E06B60B300689042EED09842ECD0604502
:103D3000EAD04845E8D05045E6D05845E4D0704533
:103D4000E2D0594A18329042DED0584A9042DBD035
:103D5000564A18329042D7D0544A30329042D3D08B
:103D6000524A48329042CFD0504A60329042CBD033
:103D70004E4A78329042C7D04C4A9032C4E7E8436A
:103D800040070FD4206825F00405626A406A10706D
:103D9000606A401C6062208D20B1628D401E2085CB
:103DA000521E6285608D18B1606C40F00400606442
:103DB000E843DFF8FC80C00632D4C80630D4618DF9
:103DC000102051B12168C861606C40F0040060644B
:103DD00016B3B6F1807F1FD022E094F84110282955
:103DE00002D1B6F1007F04D094F84110292905D002
:103DF0000FE029462046FFF703FF11E0464508D0B3
:103E00002168C8612046FFF70FFE204600F052F8F7
:103E100006E02168C86103E0616C2046FFF760FEA0
:103E2000002684F84260606C666368B1616C20466D
:103E3000FFF756FE94F84100282815D12946204660
:103E4000BDE8F05FFFF7DCBEE06A4546A8420DD052
:103E5000204600F02FF8E56284F841702663204682
:103E600084F84060FDF7ECFCBDE8F09F94F8410059
:103E700084F8417022282663204684F8406002D0EE
:103E8000FDF7D9FDF0E7FDF7D5FDEDE700E800FE11
:103E9000100002402800024040000240580002404A
:103EA0007000024088000240A0000240100402405E
:103EB0000000FFFF70B5044600680025016884F823
:103EC0004250C9434A0403D4016821F4804104E00C
:103ED000090403D4016821F40041016094F8411001
:103EE0002820292911D094F841102A290CD1222107
:103EF00084F84100216302212046FFF765FD20463A
:103F000084F84050FDF796FD70BD212184F84100F2
:103F1000216301212046FFF757FD204684F84050D9
:103F2000FDF789FD70BD00002DE9F04704460068EB
:103F30000026894617464FF0200835468169C90694
:103F400041D51021C1612FE0B9F1FF3F2CD0FDF721
:103F50007BFBC11B494502D8B9F1000F24D1206871
:103F6000426894F84210836902F48042DB431B04E8
:103F700015D4B2F5804F12D0202910D0416841F4F9
:103F800080414160FDF760FB074608E0FDF75CFB00
:103F9000C01B192803D9012645F0200504E020683C
:103FA0008069C0438006F1D420688069C0438006E0
:103FB00002D5002EC8D003E016B92168C1F81C80D4
:103FC000012645F0040521688869C20505D54FF42E
:103FD0008072CA6145F00105012641050AD52168B4
:103FE00080054FF4806245F00805CA614FF0010674
:103FF00002D40AE0800507D5206801264FF400713D
:1040000045F00205C16100E08EB12046FFF70CFDCE
:1040100020680021074F43683B404360606C2843A1
:10402000606484F8418084F8421084F8401030467F
:10403000BDE8F08700E800FE2DE9F04190F840303F
:104040000446C06A012B0DD0CB43012584F84050B3
:104050009E066FEA020208D4950606D42046FFF7B2
:1040600001FE6FE00220BDE8F081384DDE064FF022
:1040700080762DD4D7062BD4638D10226BB12168A6
:10408000CA61616C41F00401616408B1B04259D168
:10409000616C2046FFF724FD54E094F84130282B52
:1040A00002D1B0F1007F04D094F84110292904D046
:1040B0000BE02046FFF7A4FD44E0A84205D02068AD
:1040C000C2612046FFF7B0FC39E02068C26139E0E8
:1040D0005F0715D4570713D4618D61B12168626AF7
:1040E000496A1170616A491C6162218D491E2185EE
:1040F000618D491E6185618D21BBA8421FD121E0E0
:104100001D0705D4150703D42046FFF79EFC19E0D0
:10411000990717D4910715D4618D69B1606A216838
:1041200000788862606A401C6062608D401E608515
:10413000208D401E208505E0B04200D010B92046F9
:10414000FFF7B8FE002084F840008CE70000FFFF76
:1041500070B50068C1F3090141EA0241074D049CB2
:1041600019434FF480664268214306EA54532B43B7
:104170009A4321F000410A43426070BDFF63FF0390
:1041800010B590F841200021602A05D0016380F825
:104190004010FDF7F3FA10BD202280F841200163A2
:1041A00080F84010FDF7ACFA10BD2DE9F0411D4636
:1041B00017460E460446DDF8188028E04246294698
:1041C0002046FFF7B1FE10B10120BDE8F081681C68
:1041D0001DD0FDF739FAA0EB0800A84200D8B5B908
:1041E0002068806936EA00000FD00020B8420ED166
:1041F000626C002084F84000202142F020026264BA
:1042000084F8411084F84200DEE70120EEE72068E0
:10421000806936EA000004D00020B842CED00020E9
:10422000D3E70120F9E770B516460D4604461FE0B6
:10423000324629462046FFF777FE08B1012070BDBF
:10424000FDF702FA801BA84200D88DB9206880696A
:10425000C04380060CD5626C002084F84000202109
:1042600042F02002626484F8411084F84200E5E7DD
:1042700020688069C0438006DAD4002070BD70B524
:1042800016460D46044621E0324629462046FFF7F1
:104290004BFE08B1012070BD681C17D0FDF7D4F9A2
:1042A000801BA84200D88DB920688069C043800770
:1042B0000CD5626C002084F84000202142F02002DE
:1042C000626484F8411084F84200E3E72068806962
:1042D000C0438007D8D4002070BD00000D4808B549
:1042E000016841F004010160016801F004010091DE
:1042F000016841F080010160016801F080010091D6
:10430000016841F002010160006800F002000090C5
:1043100008BD0000E04402581348002110B5114CBC
:104320000123124A0460C0E90121C0E9033141615F
:104330008161C1610162FDF723FA08B1FCF76FFDED
:1043400009480021FDF786F908B1FCF768FD064829
:104350000021FDF7ABF9002803D0BDE81040FCF7C1
:104360005EBD10BD0054004018000024DB3FB000CB
:104370001848002110B5164C0C224FF4E1330460AC
:10438000C0E90131C160C0E904128161C16101620B
:1043900041628162FFF7B2F908B1FCF740FD0D48B8
:1043A0000021FEF7BDFF08B1FCF739FD09480021E7
:1043B000FEF790FF08B1FCF732FD0648FEF768FFF4
:1043C000002803D0BDE81040FCF729BD10BD000057
:1043D00000100140AC000024FEE7FEE730B50C46BB
:1043E000054600EE104A9FED141B9FED152BB8EE0D
:1043F000400B9FED153B002191B030EE010B80EE9C
:10440000021B21EE030BBCEEC00B10EE102A00F0D5
:10441000EEFD40212B460EA2009401A8FCF732F8D5
:1044200001A8FCF77DF982B211484FF47A7301A913
:10443000FFF75AFA11B030BD9A9999999999993F15
:104440000000000000E07040000000000000B040EC
:10445000536572766F202564206D6F7665642074D5
:104460006F20256420646567726565730A0000002B
:10447000AC000024704700002DE9F047454D04468C
:1044800089464FF0000A2868C04380070AD0414E91
:10449000283E306820F080603060FDF7D5F8074690
:1044A000B04608E00120BDE8F08700BFFDF7CCF87A
:1044B000C01B022867D8D8F800000001F6D4206895
:1044C00029684FF4FE0721F47C313E0241EA0030B6
:1044D0002860207AA389B4F804C040022D4D2D49EC
:1044E0005B1E227CACF1010C1035091DA0F500709B
:1044F00080B2521ECCF3080C07EA034340EA0C00DA
:10450000184306EA0262104328600868626920F0D6
:10451000C000104308600A68A06922F0200202432C
:104520000A60281D0A6822F010020A6002684FF62D
:10453000F873E4699A4342EAC40202600868B9F178
:10454000000F40F010020A6011D00868B9F1010FA5
:1045500011D040F400100860D8F80000444640F044
:104560008060C8F80000FDF76FF805460DE00868A8
:1045700040F40020EFE740F48010ECE7FDF764F82A
:10458000401B022801D903208DE720680001F5D5E2
:10459000504688E7284402582DE9F047454D044627
:1045A00089464FF0000A2868C04380070AD0414E70
:1045B000283E306820F080503060FDF745F807460F
:1045C000B04608E00120BDE8F08700BFFDF73CF8E9
:1045D000C01B022867D8D8F800008000F6D42088D5
:1045E00029684FF4FE0721F07C713E0241EA005039
:1045F0002860207AA389B4F804C040022D4D2D49CB
:104600005B1E227CACF1010C1835091DA0F5007071
:1046100080B2521ECCF3080C07EA034340EA0C00B8
:10462000184306EA0262104328600868626920F4B1
:104630004060104308600A68A06922F400720243D7
:104640000A60281D0A6822F480720A6002684FF628
:10465000F873E4699A4342EAC40202600868B9F157
:10466000000F40F480720A6011D00868B9F1010FA0
:1046700011D040F080700860D8F80000444640F047
:104680008050C8F80000FCF7DFFF05460DE0086821
:1046900040F48000EFE740F40000ECE7FCF7D4FFC3
:1046A000401B022801D903208DE720688000F5D542
:1046B000504688E7284402587047000010B5144956
:1046C0004FF47A744022234686B001F14000FFF790
:1046D00097F8104B10A10E485A1EFBF75DFF0228F9
:1046E0000DD0182268460FA1FCF739F808481422AB
:1046F000234669464030FFF7F7F806B010BD05487D
:10470000401E4178007806B0BDE81040FFF766BE55
:104710006C00002401000024256868752025686865
:1047200075000000496E76616C6964206461746193
:1047300020666F726D61740A00000000FDF77CB99D
:1047400030B59DB04C216846FCF73BF8202113A8FA
:10475000FCF737F80220FDF761FA2D4900242D48B7
:104760000A6822F001020A600A68026842F44042C4
:104770000260026802F440421B9202689204FCD577
:10478000254A136843F002031360126802F0020224
:104790001B92026842F44042026002680A6842F0DA
:1047A00001020A60096801F001011B910168890496
:1047B000FCD5022009900121C20378230C25CDE904
:1047C00000120AAA82E80B000D90CDE910540E9059
:1047D0000F9068461294FEF787FA08B172B6FEE7AA
:1047E00040201A9008230501CDE9163013ABCDE91E
:1047F00018053F21032283E81600042113A8FEF7C1
:1048000063F8002801D072B6FEE71DB030BD00008D
:104810002C04005818480258F44402582C48F0B5AB
:104820002C4A016841F470010160106800F00F002B
:10483000072804D2106820F00F00C01D1060264920
:104840000020254C10340B68244D43F001030B600D
:1048500020600B682B400B60136803F00F03072BDD
:1048600004D9136823F00F03DB1D13601A4C1C4A94
:1048700018341C4B261D371D2060174C1A4D283448
:104880003060261D3860371D23603B1D35601C1DC0
:104890003A60251D2E1D1860331D2260286032608D
:1048A00018600A680C4B114C22F4802260330A60B5
:1048B000186020686FF30F00B0F1005F03D20C495D
:1048C0000120C1F8080143F2D2000A490860F0BD96
:1048D00088ED00E000200052004402587FEDF6EA27
:1048E00080020101000202020000FF010010005CD2
:1048F000008000510040005230B5416EB9B10168EE
:104900000D4B03F108048A688968C2F34262490FBB
:104910005D5C615C2D01B5FBF1F1A0F86A10995C5A
:10492000A25C0901B1FBF2F1A0F8681030BD0121D1
:10493000A0F86A10F8E70000AA50000890F82810C4
:10494000090706D50168836B4A6822F400421A43BE
:104950004A6090F82810C90706D00168C36A4A68FF
:1049600022F400321A434A6090F82810890706D5CD
:104970000168036B4A6822F480321A434A6090F857
:104980002810490706D50168436B4A6822F4802243
:104990001A434A6090F82810C90606D50168C36B0F
:1049A0008A6822F480521A438A6090F82810890697
:1049B00006D50168036C8A6822F400521A438A60A3
:1049C00090F82810490611D50168436C4A6822F412
:1049D00080121A434A60416CB1F5801F06D101680C
:1049E000836C4A6822F4C0021A434A6090F8281087
:1049F000090606D50168C26C486820F400201043FF
:104A0000486070472DE9F84300250446C0F89050EF
:104A1000FCF71AFE8046206820266FF07E4700686B
:104A2000000713D50022434631042046009700F0CA
:104A300049FA58B1216851E8000F20F0800041E8A0
:104A40000002002AF6D1C4F8886021E020680068DE
:104A5000400722D5002243464FF4800120460097AC
:104A600000F030FAC8B1206850E8001F21F49071BE
:104A700040E80012002AF6D12068083050E8001FF4
:104A800021F0010140E80012002AF5D1C4F88C6041
:104A9000032084F88450BDE8F883C4F88860C4F823
:104AA0008C60E5662567002084F88450F3E710B534
:104AB000806B0021A0F85E10A0F85610FEF758FC9D
:104AC00010BD000010B5026852E8001F21F490717B
:104AD00042E80013002BF6D10E4B0268083252E870
:104AE000001F194042E80014002CF6D1C16E0129C4
:104AF00008D1026852E8001F21F0100142E80013BB
:104B0000002BF6D100212022C0F88C20C16641671D
:104B100010BD0000FEFFFFEF2DE9F0430446806862
:104B2000D84E87B0D84B2168D4E90427D4F81CC0EC
:104B300010430A68002547EA0C0738433240024315
:104B40000A602068E268416821F4405111434160E5
:104B50002268A1699A4201D0206A01439768DFF870
:104B60002CC3CB4ECB4807EA0C070F439760216854
:104B7000676ACA6A22F00F023A43CA622268B242E6
:104B80000ED1006800F03800182873D047DCB8B3A5
:104B9000082879D010286FD178E028287ED17BE0D2
:104BA000BD498A4209D1006800F00700062875D285
:104BB000DFE800F0546A6C6E7072B8498A4209D11D
:104BC000006800F00700062868D2DFE800F0475DC3
:104BD0005F616365B2498A4209D1006800F007004D
:104BE00006285BD2DFE800F03A5052545658AD49DF
:104BF0008A420BD1006800F0070006284ED200E080
:104C000010E0DFE800F02B4143454749A6498A42BE
:104C10000AD1006800F03800182839D0B7DD202804
:104C2000BBD13CE001203AE0A0498A4209D10068AA
:104C300000F00700062831D2DFE800F01026282A0D
:104C40002C2E9B498A420BD1006800F007000628F1
:104C500024D2DFE800F003191B1D1F2100201EE0F5
:104C60009A421BD18B48001D006800F007000628FF
:104C700014D202E00CE007E010E0DFE800F00305EA
:104C800007090B0D02200AE0042008E0082006E0D6
:104C9000102004E0202002E0402000E08020854930
:104CA000DFF814829A42854A4FF400434FEA2117F5
:104CB0004FF000064ED110281AD006DC022809D089
:104CC00004280BD008287CD10DE020283ED04028B5
:104CD00077D13DE0FCF7CCFF014610E06846FCF7D9
:104CE000D9FF01990BE003A8FDF776F8049906E0D7
:104CF0001068800605D51068C0F3C100C1400029C6
:104D000070D0606A676838F8102007EB4703B1FB82
:104D1000F2F0834255D8B0EB073F52D80023084643
:104D20001946FBF737FB02467808130E120243EAD6
:104D3000012110183A4671410023FBF72BFB604A12
:104D4000A0F5407191423CD821688FE03946D8E700
:104D50001946D6E7D4F81CC04FF6EF799C4546D1EA
:104D6000082819D005DC58B101280CD0042875D1C9
:104D70000DE0102815D0202835D040286ED134E021
:104D8000FDF7F2FE01E0FDF701FF014610E0684685
:104D9000FCF780FF01990BE003A8FDF71DF80499CB
:104DA00006E01068800604D51068C0F3C100C14059
:104DB000C1B1636A606838F81330B1FBF3F14900A0
:104DC00000E04BE001EB5001B1FBF0F0A0F110016D
:104DD000494543D84FF6F0732168C0F342021840AA
:104DE000104343E043E03946E3E71946E1E708288A
:104DF00019D005DC58B101280CD004282ED10DE0C3
:104E0000102815D020282BD0402827D12AE0FDF7E4
:104E1000ABFE01E0FDF7BAFE014610E06846FCF784
:104E200039FF01990BE003A8FCF7D6FF049906E0CF
:104E30001068800604D51068C0F3C100C140B1B14C
:104E4000636A606838F81330B1FBF3F101EB50018D
:104E5000B1FBF0F0A0F11001494505D9012506E0AC
:104E60003946EDE71946EBE7216880B2C8600120BA
:104E7000A4F86A00A4F8680028466667A66707B029
:104E8000BDE8F083F369FFCF000C0058FFF4FF1179
:104E900000100140544402580044004000480040C3
:104EA000004C0040005000400014014000780040D9
:104EB000007C00400090D00392500008004402584B
:104EC000FFFC0F002DE9F047994617460D460446B2
:104ED000089E4FF0000833E0701C31D0FCF7B4FBA3
:104EE000A0EB0900B04218D8BEB12068016849079C
:104EF00026D5802D24D0402D22D0C169C943090771
:104F00000DD4082505622046FFF7DCFDC4F890505B
:104F1000012084F88480BDE8F0870320FBE7C069A6
:104F2000C04300050CD421684FF40060086220469D
:104F3000FFF7C8FD2021C4F8901084F88480ECE7C6
:104F40002068C06935EA000004D00020B842C3D010
:104F50000020E0E70120F9E70148FEF70BBA000066
:104F6000AC000024FEE7090700284FEA116104DBCA
:104F700000F1E02080F80014704700F00F0000F10D
:104F8000E02080F8141D70471FB5002400940194A0
:104F900002940394FCF7D4FD01208DF80C001F212E
:104FA0008DF8081087228DF809208DF80D008DF8F6
:104FB000000068468DF80A408DF80E408DF80140DB
:104FC00001948DF80B408DF80F40FCF78BFD042009
:104FD000FCF7C4FDFCF738FDFFF7B2FBFFF77EF9E5
:104FE000FFF79AF9FFF7C4F9FFF768FBFCE770B524
:104FF0000446154606200E4600EB8400C9B2C0B236
:1050000000F01AF8072000EB8400C6F30721C0B2B5
:1050100000F012F8082000EB8400E9B2C0B200F002
:105020000BF8092000EB8400C5F30721BDE87040B0
:10503000C0B200F001B800001CB542F210720223A9
:105040008DF8040004488DF805108021009201AA13
:10505000FCF7F8FB1CBD00001800002410B5002967
:105060000AD00878002807D005487844FBF7A0FE4E
:10507000002801D0002010BD0248784410BD000077
:10508000820000007A0000004FF04070E1EE100A4C
:105090007047010002000400060008000A000C002E
:1050A0001000200040008000000101010103070101
:1050B00000000804020408010101000000000102D0
:1050C000030401020304060708090000FC5100085C
:1050D0000000002418000000D40200081452000848
:1050E0001800002488070000F002000810010000EA
:1050F00043000000F8FFFFFF0040404040404040B8
:10510000404041414141414040404040404040409A
:10511000404040404040404040050202020202023E
:10512000020202020202020202202020202020208D
:1051300020202002020202020202909090909090A1
:10514000101010101010101010101010101010105F
:1051500010101010020202020202888888888888D3
:1051600008080808080808080808080808080808BF
:1051700008080808020202024000000000000000C7
:10518000000000000000000000000000000000001F
:10519000000000000000000000000000000000000F
:1051A00000000000000000000000000000000000FF
:1051B00000000000000000000000000000000000EF
:1051C00000000000000000000000000000000000DF
:1051D00000000000000000000000000000000000CF
:1051E00000000000000000000000000000000000BF
:1051F00000000000000000000000000000000000AF
:105200000100000010000000000000000090D0032A
:045210000090D00337
:040000050800029954
:00000001FF
